{
  "contractName": "VotingSystem",
  "abi": [
    {
      "inputs": [
        {
          "internalType": "uint256",
          "name": "_start",
          "type": "uint256"
        },
        {
          "internalType": "uint256",
          "name": "_end",
          "type": "uint256"
        }
      ],
      "payable": false,
      "stateMutability": "nonpayable",
      "type": "constructor"
    },
    {
      "constant": true,
      "inputs": [
        {
          "internalType": "uint256",
          "name": "",
          "type": "uint256"
        }
      ],
      "name": "ProposalsStore",
      "outputs": [
        {
          "internalType": "uint256",
          "name": "ProposalId",
          "type": "uint256"
        },
        {
          "internalType": "string",
          "name": "ProposalName",
          "type": "string"
        },
        {
          "internalType": "uint256",
          "name": "votecount",
          "type": "uint256"
        }
      ],
      "payable": false,
      "stateMutability": "view",
      "type": "function"
    },
    {
      "constant": true,
      "inputs": [],
      "name": "chairperson",
      "outputs": [
        {
          "internalType": "address",
          "name": "",
          "type": "address"
        }
      ],
      "payable": false,
      "stateMutability": "view",
      "type": "function"
    },
    {
      "constant": false,
      "inputs": [
        {
          "internalType": "address",
          "name": "Voteraddress",
          "type": "address"
        }
      ],
      "name": "giveRightToVote",
      "outputs": [],
      "payable": false,
      "stateMutability": "nonpayable",
      "type": "function"
    },
    {
      "constant": false,
      "inputs": [
        {
          "internalType": "address",
          "name": "to",
          "type": "address"
        }
      ],
      "name": "delegatevote",
      "outputs": [],
      "payable": false,
      "stateMutability": "nonpayable",
      "type": "function"
    },
    {
      "constant": false,
      "inputs": [
        {
          "internalType": "uint256",
          "name": "_proposalId",
          "type": "uint256"
        }
      ],
      "name": "vote",
      "outputs": [],
      "payable": false,
      "stateMutability": "nonpayable",
      "type": "function"
    },
    {
      "constant": true,
      "inputs": [],
      "name": "winningProposal",
      "outputs": [
        {
          "internalType": "uint256",
          "name": "winningproposalid",
          "type": "uint256"
        }
      ],
      "payable": false,
      "stateMutability": "view",
      "type": "function"
    },
    {
      "constant": true,
      "inputs": [],
      "name": "winner",
      "outputs": [
        {
          "internalType": "string",
          "name": "winnername",
          "type": "string"
        }
      ],
      "payable": false,
      "stateMutability": "view",
      "type": "function"
    }
  ],
  "bytecode": "0x6080604052600060025534801561001557600080fd5b50604051610c25380380610c258339818101604052604081101561003857600080fd5b81019080805190602001909291908051906020019092919050505033600360006101000a81548173ffffffffffffffffffffffffffffffffffffffff021916908373ffffffffffffffffffffffffffffffffffffffff16021790555042600481905550816004540160058190555080600454016006819055506100f56040518060400160405280600a81526020017f50726f706f73616c20310000000000000000000000000000000000000000000081525061018460201b60201c565b6101396040518060400160405280600a81526020017f50726f706f73616c20320000000000000000000000000000000000000000000081525061018460201b60201c565b61017d6040518060400160405280600a81526020017f50726f706f73616c20330000000000000000000000000000000000000000000081525061018460201b60201c565b50506102a4565b60026000815480929190600101919050555060405180606001604052806002548152602001828152602001600081525060008060025481526020019081526020016000206000820151816000015560208201518160010190805190602001906101ee9291906101ff565b506040820151816002015590505050565b828054600181600116156101000203166002900490600052602060002090601f016020900481019282601f1061024057805160ff191683800117855561026e565b8280016001018555821561026e579182015b8281111561026d578251825591602001919060010190610252565b5b50905061027b919061027f565b5090565b6102a191905b8082111561029d576000816000905550600101610285565b5090565b90565b610972806102b36000396000f3fe608060405234801561001057600080fd5b506004361061007d5760003560e01c80636231b23a1161005b5780636231b23a1461011857806372467fff1461015c5780639e7b8d6114610211578063dfbf53ae146102555761007d565b80630121b93f146100825780632e4176cf146100b0578063609ff1bd146100fa575b600080fd5b6100ae6004803603602081101561009857600080fd5b81019080803590602001909291905050506102d8565b005b6100b8610434565b604051808273ffffffffffffffffffffffffffffffffffffffff1673ffffffffffffffffffffffffffffffffffffffff16815260200191505060405180910390f35b61010261045a565b6040518082815260200191505060405180910390f35b61015a6004803603602081101561012e57600080fd5b81019080803573ffffffffffffffffffffffffffffffffffffffff1690602001909291905050506104c7565b005b6101886004803603602081101561017257600080fd5b810190808035906020019092919050505061069a565b6040518084815260200180602001838152602001828103825284818151815260200191508051906020019080838360005b838110156101d45780820151818401526020810190506101b9565b50505050905090810190601f1680156102015780820380516001836020036101000a031916815260200191505b5094505050505060405180910390f35b6102536004803603602081101561022757600080fd5b81019080803573ffffffffffffffffffffffffffffffffffffffff16906020019092919050505061075c565b005b61025d61086c565b6040518080602001828103825283818151815260200191508051906020019080838360005b8381101561029d578082015181840152602081019050610282565b50505050905090810190601f1680156102ca5780820380516001836020036101000a031916815260200191505b509250505060405180910390f35b60055442101580156102ec57506006544211155b6102f557600080fd5b60001515600160003373ffffffffffffffffffffffffffffffffffffffff1673ffffffffffffffffffffffffffffffffffffffff16815260200190815260200160002060000160009054906101000a900460ff1615151461035557600080fd5b60025481111561036457600080fd5b600160003373ffffffffffffffffffffffffffffffffffffffff1673ffffffffffffffffffffffffffffffffffffffff1681526020019081526020016000206002015460008083815260200190815260200160002060020154016000808381526020019081526020016000206002018190555060018060003373ffffffffffffffffffffffffffffffffffffffff1673ffffffffffffffffffffffffffffffffffffffff16815260200190815260200160002060000160006101000a81548160ff02191690831515021790555050565b600360009054906101000a900473ffffffffffffffffffffffffffffffffffffffff1681565b600060065442101561046b57600080fd5b600080600190505b60025481116104c257816000808381526020019081526020016000206002015411156104b5576000808281526020019081526020016000206002015491508092505b8080600101915050610473565b505090565b60055442101580156104db57506006544211155b6104e457600080fd5b60018060003373ffffffffffffffffffffffffffffffffffffffff1673ffffffffffffffffffffffffffffffffffffffff16815260200190815260200160002060020154101561053357600080fd5b60018060008373ffffffffffffffffffffffffffffffffffffffff1673ffffffffffffffffffffffffffffffffffffffff16815260200190815260200160002060020154101561058257600080fd5b600160003373ffffffffffffffffffffffffffffffffffffffff1673ffffffffffffffffffffffffffffffffffffffff16815260200190815260200160002060020154600160008373ffffffffffffffffffffffffffffffffffffffff1673ffffffffffffffffffffffffffffffffffffffff1681526020019081526020016000206002015401600160008373ffffffffffffffffffffffffffffffffffffffff1673ffffffffffffffffffffffffffffffffffffffff168152602001908152602001600020600201819055506000600160003373ffffffffffffffffffffffffffffffffffffffff1673ffffffffffffffffffffffffffffffffffffffff1681526020019081526020016000206002018190555050565b6000602052806000526040600020600091509050806000015490806001018054600181600116156101000203166002900480601f01602080910402602001604051908101604052809291908181526020018280546001816001161561010002031660029004801561074c5780601f106107215761010080835404028352916020019161074c565b820191906000526020600020905b81548152906001019060200180831161072f57829003601f168201915b5050505050908060020154905083565b600554421015801561077057506006544211155b61077957600080fd5b600360009054906101000a900473ffffffffffffffffffffffffffffffffffffffff1673ffffffffffffffffffffffffffffffffffffffff163373ffffffffffffffffffffffffffffffffffffffff16146107d357600080fd5b6000600160008373ffffffffffffffffffffffffffffffffffffffff1673ffffffffffffffffffffffffffffffffffffffff168152602001908152602001600020600201541461082257600080fd5b60018060008373ffffffffffffffffffffffffffffffffffffffff1673ffffffffffffffffffffffffffffffffffffffff1681526020019081526020016000206002018190555050565b606060065442101561087d57600080fd5b600061088761045a565b90506000808281526020019081526020016000206001018054600181600116156101000203166002900480601f0160208091040260200160405190810160405280929190818152602001828054600181600116156101000203166002900480156109325780601f1061090757610100808354040283529160200191610932565b820191906000526020600020905b81548152906001019060200180831161091557829003601f168201915b50505050509150509056fea265627a7a723158202af5dfda49b35ffec3f8949687c67bd20e0b54191f7fe4dd1f89912a0a0803ed64736f6c63430005100032",
  "source": "pragma solidity >=0.4.22 <0.9.0;\r\n\r\ncontract VotingSystem{\r\n    \r\n    struct Voters{\r\n         bool voted;\r\n        uint id;\r\n        uint weight;\r\n        \r\n    }\r\n    struct Proposal{\r\n        uint ProposalId;\r\n        string ProposalName;\r\n        uint votecount;\r\n        \r\n    }\r\n    mapping(uint=> Proposal) public ProposalsStore;\r\n    mapping(address=>Voters) Voterstore;\r\n    \r\n    uint ProposalId=0;\r\n    address public chairperson;\r\n    \r\n    uint createdtime;\r\n    uint start;\r\n    uint end;\r\n    \r\n    constructor(uint _start, uint _end) public{\r\n        chairperson=msg.sender;\r\n      createdtime=block.timestamp;  \r\n      start=createdtime+ _start;\r\n      end=createdtime+ _end;\r\n      _addProposals(\"Proposal 1\");\r\n      _addProposals(\"Proposal 2\");\r\n      _addProposals(\"Proposal 3\");\r\n        \r\n    }\r\n    function _addProposals(string memory _ProposalName) private {\r\n        ProposalId++;\r\n        ProposalsStore[ProposalId]= Proposal(ProposalId, _ProposalName,0);\r\n        \r\n    }\r\n    function giveRightToVote(address Voteraddress) public{\r\n        require(block.timestamp>=start && block.timestamp<=end);\r\n        require(msg.sender==chairperson);\r\n        require(Voterstore[Voteraddress].weight == 0);\r\n        Voterstore[Voteraddress].weight =1;\r\n        \r\n        \r\n    }\r\n    function delegatevote(address to) public{\r\n        require(block.timestamp>=start && block.timestamp<=end);\r\n        require(Voterstore[msg.sender].weight >= 1);\r\n        require(Voterstore[to].weight >= 1);\r\n        Voterstore[to].weight =Voterstore[to].weight+Voterstore[msg.sender].weight;\r\n        Voterstore[msg.sender].weight = 0;\r\n        \r\n    }\r\n    \r\n    function vote(uint _proposalId) public {\r\n        require(block.timestamp>=start && block.timestamp<=end);\r\n        require(Voterstore[msg.sender].voted == false);\r\n        require(_proposalId<=ProposalId);\r\n        ProposalsStore[_proposalId].votecount = ProposalsStore[_proposalId].votecount+ Voterstore[msg.sender].weight;\r\n        Voterstore[msg.sender].voted=true;\r\n        \r\n        \r\n    }\r\n    function winningProposal() view public returns(uint winningproposalid){\r\n        require(block.timestamp>=end);\r\n        uint winningProposalvote;\r\n        \r\n        for(uint i=1;i<=ProposalId;i++)\r\n        {\r\n            if(ProposalsStore[i].votecount>winningProposalvote)\r\n            {\r\n                winningProposalvote= ProposalsStore[i].votecount;\r\n                winningproposalid =i;\r\n            }\r\n            \r\n        }\r\n        \r\n        \r\n    }\r\n    function winner() view public returns(string memory winnername){\r\n        require(block.timestamp>=end);\r\n        uint winnerid= winningProposal();\r\n        winnername = ProposalsStore[winnerid].ProposalName;\r\n    }\r\n}",
  "sourcePath": "C:/Users/Acer/Desktop/Building-Applications-In-Blockchain-Guide/Program2-Simple_Voting_System/contracts/VotingSystem.sol",
  "compiler": {
    "name": "solc",
    "version": "0.5.16+commit.9c3226ce.Emscripten.clang"
  },
  "schemaVersion": "3.4.1",
  "updatedAt": "2021-07-22T10:41:47.793Z",
  "networkType": "ethereum",
  "devdoc": {
    "methods": {}
  },
  "userdoc": {
    "methods": {}
  }
}