{
  "contractName": "VotingSystem",
  "abi": [
    {
      "inputs": [
        {
          "internalType": "uint256",
          "name": "_start",
          "type": "uint256"
        },
        {
          "internalType": "uint256",
          "name": "_end",
          "type": "uint256"
        }
      ],
      "stateMutability": "nonpayable",
      "type": "constructor"
    },
    {
      "anonymous": false,
      "inputs": [
        {
          "indexed": true,
          "internalType": "bytes32",
          "name": "role",
          "type": "bytes32"
        },
        {
          "indexed": true,
          "internalType": "bytes32",
          "name": "previousAdminRole",
          "type": "bytes32"
        },
        {
          "indexed": true,
          "internalType": "bytes32",
          "name": "newAdminRole",
          "type": "bytes32"
        }
      ],
      "name": "RoleAdminChanged",
      "type": "event"
    },
    {
      "anonymous": false,
      "inputs": [
        {
          "indexed": true,
          "internalType": "bytes32",
          "name": "role",
          "type": "bytes32"
        },
        {
          "indexed": true,
          "internalType": "address",
          "name": "account",
          "type": "address"
        },
        {
          "indexed": true,
          "internalType": "address",
          "name": "sender",
          "type": "address"
        }
      ],
      "name": "RoleGranted",
      "type": "event"
    },
    {
      "anonymous": false,
      "inputs": [
        {
          "indexed": true,
          "internalType": "bytes32",
          "name": "role",
          "type": "bytes32"
        },
        {
          "indexed": true,
          "internalType": "address",
          "name": "account",
          "type": "address"
        },
        {
          "indexed": true,
          "internalType": "address",
          "name": "sender",
          "type": "address"
        }
      ],
      "name": "RoleRevoked",
      "type": "event"
    },
    {
      "inputs": [],
      "name": "CHAIRMAN",
      "outputs": [
        {
          "internalType": "bytes32",
          "name": "",
          "type": "bytes32"
        }
      ],
      "stateMutability": "view",
      "type": "function",
      "constant": true
    },
    {
      "inputs": [],
      "name": "DEFAULT_ADMIN_ROLE",
      "outputs": [
        {
          "internalType": "bytes32",
          "name": "",
          "type": "bytes32"
        }
      ],
      "stateMutability": "view",
      "type": "function",
      "constant": true
    },
    {
      "inputs": [
        {
          "internalType": "uint256",
          "name": "",
          "type": "uint256"
        }
      ],
      "name": "ProposalsStore",
      "outputs": [
        {
          "internalType": "uint256",
          "name": "ProposalId",
          "type": "uint256"
        },
        {
          "internalType": "string",
          "name": "ProposalName",
          "type": "string"
        },
        {
          "internalType": "uint256",
          "name": "votecount",
          "type": "uint256"
        }
      ],
      "stateMutability": "view",
      "type": "function",
      "constant": true
    },
    {
      "inputs": [
        {
          "internalType": "bytes32",
          "name": "role",
          "type": "bytes32"
        }
      ],
      "name": "getRoleAdmin",
      "outputs": [
        {
          "internalType": "bytes32",
          "name": "",
          "type": "bytes32"
        }
      ],
      "stateMutability": "view",
      "type": "function",
      "constant": true
    },
    {
      "inputs": [
        {
          "internalType": "bytes32",
          "name": "role",
          "type": "bytes32"
        },
        {
          "internalType": "address",
          "name": "account",
          "type": "address"
        }
      ],
      "name": "grantRole",
      "outputs": [],
      "stateMutability": "nonpayable",
      "type": "function"
    },
    {
      "inputs": [
        {
          "internalType": "bytes32",
          "name": "role",
          "type": "bytes32"
        },
        {
          "internalType": "address",
          "name": "account",
          "type": "address"
        }
      ],
      "name": "hasRole",
      "outputs": [
        {
          "internalType": "bool",
          "name": "",
          "type": "bool"
        }
      ],
      "stateMutability": "view",
      "type": "function",
      "constant": true
    },
    {
      "inputs": [
        {
          "internalType": "bytes32",
          "name": "role",
          "type": "bytes32"
        },
        {
          "internalType": "address",
          "name": "account",
          "type": "address"
        }
      ],
      "name": "renounceRole",
      "outputs": [],
      "stateMutability": "nonpayable",
      "type": "function"
    },
    {
      "inputs": [
        {
          "internalType": "bytes32",
          "name": "role",
          "type": "bytes32"
        },
        {
          "internalType": "address",
          "name": "account",
          "type": "address"
        }
      ],
      "name": "revokeRole",
      "outputs": [],
      "stateMutability": "nonpayable",
      "type": "function"
    },
    {
      "inputs": [
        {
          "internalType": "bytes4",
          "name": "interfaceId",
          "type": "bytes4"
        }
      ],
      "name": "supportsInterface",
      "outputs": [
        {
          "internalType": "bool",
          "name": "",
          "type": "bool"
        }
      ],
      "stateMutability": "view",
      "type": "function",
      "constant": true
    },
    {
      "inputs": [
        {
          "internalType": "address",
          "name": "Voteraddress",
          "type": "address"
        }
      ],
      "name": "giveRightToVote",
      "outputs": [],
      "stateMutability": "nonpayable",
      "type": "function"
    },
    {
      "inputs": [
        {
          "internalType": "address",
          "name": "to",
          "type": "address"
        }
      ],
      "name": "delegatevote",
      "outputs": [],
      "stateMutability": "nonpayable",
      "type": "function"
    },
    {
      "inputs": [
        {
          "internalType": "uint256",
          "name": "_proposalId",
          "type": "uint256"
        }
      ],
      "name": "vote",
      "outputs": [],
      "stateMutability": "nonpayable",
      "type": "function"
    },
    {
      "inputs": [],
      "name": "winningProposal",
      "outputs": [
        {
          "internalType": "uint256",
          "name": "winningproposalid",
          "type": "uint256"
        }
      ],
      "stateMutability": "view",
      "type": "function",
      "constant": true
    },
    {
      "inputs": [],
      "name": "winner",
      "outputs": [
        {
          "internalType": "string",
          "name": "winnername",
          "type": "string"
        }
      ],
      "stateMutability": "view",
      "type": "function",
      "constant": true
    }
  ],
  "bytecode": "0x608060405260006003553480156200001657600080fd5b5060405162001dea38038062001dea83398181016040528101906200003c919062000441565b6200006e7f5778c2f7d924e55986d549d645f53119b71708389fc2011260c8a657c569fcaa336200017b60201b60201c565b426004819055508160045462000085919062000488565b600581905550806004546200009b919062000488565b600681905550620000e76040518060400160405280600a81526020017f50726f706f73616c2031000000000000000000000000000000000000000000008152506200019160201b60201c565b6200012d6040518060400160405280600a81526020017f50726f706f73616c2032000000000000000000000000000000000000000000008152506200019160201b60201c565b620001736040518060400160405280600a81526020017f50726f706f73616c2033000000000000000000000000000000000000000000008152506200019160201b60201c565b5050620005f0565b6200018d82826200021760201b60201c565b5050565b60036000815480929190620001a69062000525565b9190505550604051806060016040528060035481526020018281526020016000815250600160006003548152602001908152602001600020600082015181600001556020820151816001019080519060200190620002069291906200037a565b506040820151816002015590505050565b6200022982826200030860201b60201c565b6200030457600160008084815260200190815260200160002060000160008373ffffffffffffffffffffffffffffffffffffffff1673ffffffffffffffffffffffffffffffffffffffff16815260200190815260200160002060006101000a81548160ff021916908315150217905550620002a96200037260201b60201c565b73ffffffffffffffffffffffffffffffffffffffff168173ffffffffffffffffffffffffffffffffffffffff16837f2f8788117e7eff1d82e926ec794901d17c78024a50270940304540a733656f0d60405160405180910390a45b5050565b600080600084815260200190815260200160002060000160008373ffffffffffffffffffffffffffffffffffffffff1673ffffffffffffffffffffffffffffffffffffffff16815260200190815260200160002060009054906101000a900460ff16905092915050565b600033905090565b8280546200038890620004ef565b90600052602060002090601f016020900481019282620003ac5760008555620003f8565b82601f10620003c757805160ff1916838001178555620003f8565b82800160010185558215620003f8579182015b82811115620003f7578251825591602001919060010190620003da565b5b5090506200040791906200040b565b5090565b5b80821115620004265760008160009055506001016200040c565b5090565b6000815190506200043b81620005d6565b92915050565b600080604083850312156200045b576200045a620005d1565b5b60006200046b858286016200042a565b92505060206200047e858286016200042a565b9150509250929050565b60006200049582620004e5565b9150620004a283620004e5565b9250827fffffffffffffffffffffffffffffffffffffffffffffffffffffffffffffffff03821115620004da57620004d962000573565b5b828201905092915050565b6000819050919050565b600060028204905060018216806200050857607f821691505b602082108114156200051f576200051e620005a2565b5b50919050565b60006200053282620004e5565b91507fffffffffffffffffffffffffffffffffffffffffffffffffffffffffffffffff82141562000568576200056762000573565b5b600182019050919050565b7f4e487b7100000000000000000000000000000000000000000000000000000000600052601160045260246000fd5b7f4e487b7100000000000000000000000000000000000000000000000000000000600052602260045260246000fd5b600080fd5b620005e181620004e5565b8114620005ed57600080fd5b50565b6117ea80620006006000396000f3fe608060405234801561001057600080fd5b50600436106100ea5760003560e01c806372467fff1161008c578063a217fddf11610066578063a217fddf1461025b578063d547741f14610279578063dfbf53ae14610295578063ee44a35a146102b3576100ea565b806372467fff146101dd57806391d148541461020f5780639e7b8d611461023f576100ea565b80632f2ff15d116100c85780632f2ff15d1461016b57806336568abe14610187578063609ff1bd146101a35780636231b23a146101c1576100ea565b80630121b93f146100ef57806301ffc9a71461010b578063248a9ca31461013b575b600080fd5b61010960048036038101906101049190611114565b6102d1565b005b610125600480360381019061012091906110e7565b610439565b604051610132919061129e565b60405180910390f35b6101556004803603810190610150919061107a565b6104b3565b60405161016291906112b9565b60405180910390f35b610185600480360381019061018091906110a7565b6104d2565b005b6101a1600480360381019061019c91906110a7565b6104fb565b005b6101ab61057e565b6040516101b89190611336565b60405180910390f35b6101db60048036038101906101d6919061104d565b6105f3565b005b6101f760048036038101906101f29190611114565b6107d1565b60405161020693929190611351565b60405180910390f35b610229600480360381019061022491906110a7565b610883565b604051610236919061129e565b60405180910390f35b6102596004803603810190610254919061104d565b6108ed565b005b6102636109d7565b60405161027091906112b9565b60405180910390f35b610293600480360381019061028e91906110a7565b6109de565b005b61029d610a07565b6040516102aa91906112d4565b60405180910390f35b6102bb610ac9565b6040516102c891906112b9565b60405180910390f35b60055442101580156102e557506006544211155b6102ee57600080fd5b60001515600260003373ffffffffffffffffffffffffffffffffffffffff1673ffffffffffffffffffffffffffffffffffffffff16815260200190815260200160002060000160009054906101000a900460ff1615151461034e57600080fd5b60035481111561035d57600080fd5b600260003373ffffffffffffffffffffffffffffffffffffffff1673ffffffffffffffffffffffffffffffffffffffff1681526020019081526020016000206002015460016000838152602001908152602001600020600201546103c191906113b6565b60016000838152602001908152602001600020600201819055506001600260003373ffffffffffffffffffffffffffffffffffffffff1673ffffffffffffffffffffffffffffffffffffffff16815260200190815260200160002060000160006101000a81548160ff02191690831515021790555050565b60007f7965db0b000000000000000000000000000000000000000000000000000000007bffffffffffffffffffffffffffffffffffffffffffffffffffffffff1916827bffffffffffffffffffffffffffffffffffffffffffffffffffffffff191614806104ac57506104ab82610aed565b5b9050919050565b6000806000838152602001908152602001600020600101549050919050565b6104db826104b3565b6104ec816104e7610b57565b610b5f565b6104f68383610bfc565b505050565b610503610b57565b73ffffffffffffffffffffffffffffffffffffffff168173ffffffffffffffffffffffffffffffffffffffff1614610570576040517f08c379a000000000000000000000000000000000000000000000000000000000815260040161056790611316565b60405180910390fd5b61057a8282610cdc565b5050565b600060065442101561058f57600080fd5b600080600190505b60035481116105ee5781600160008381526020019081526020016000206002015411156105db57600160008281526020019081526020016000206002015491508092505b80806105e690611573565b915050610597565b505090565b600554421015801561060757506006544211155b61061057600080fd5b6001600260003373ffffffffffffffffffffffffffffffffffffffff1673ffffffffffffffffffffffffffffffffffffffff16815260200190815260200160002060020154101561066057600080fd5b6001600260008373ffffffffffffffffffffffffffffffffffffffff1673ffffffffffffffffffffffffffffffffffffffff1681526020019081526020016000206002015410156106b057600080fd5b600260003373ffffffffffffffffffffffffffffffffffffffff1673ffffffffffffffffffffffffffffffffffffffff16815260200190815260200160002060020154600260008373ffffffffffffffffffffffffffffffffffffffff1673ffffffffffffffffffffffffffffffffffffffff1681526020019081526020016000206002015461074091906113b6565b600260008373ffffffffffffffffffffffffffffffffffffffff1673ffffffffffffffffffffffffffffffffffffffff168152602001908152602001600020600201819055506000600260003373ffffffffffffffffffffffffffffffffffffffff1673ffffffffffffffffffffffffffffffffffffffff1681526020019081526020016000206002018190555050565b60016020528060005260406000206000915090508060000154908060010180546107fa90611541565b80601f016020809104026020016040519081016040528092919081815260200182805461082690611541565b80156108735780601f1061084857610100808354040283529160200191610873565b820191906000526020600020905b81548152906001019060200180831161085657829003601f168201915b5050505050908060020154905083565b600080600084815260200190815260200160002060000160008373ffffffffffffffffffffffffffffffffffffffff1673ffffffffffffffffffffffffffffffffffffffff16815260200190815260200160002060009054906101000a900460ff16905092915050565b7f5778c2f7d924e55986d549d645f53119b71708389fc2011260c8a657c569fcaa61091f8161091a610b57565b610b5f565b600554421015801561093357506006544211155b61093c57600080fd5b6000600260008473ffffffffffffffffffffffffffffffffffffffff1673ffffffffffffffffffffffffffffffffffffffff168152602001908152602001600020600201541461098b57600080fd5b6001600260008473ffffffffffffffffffffffffffffffffffffffff1673ffffffffffffffffffffffffffffffffffffffff168152602001908152602001600020600201819055505050565b6000801b81565b6109e7826104b3565b6109f8816109f3610b57565b610b5f565b610a028383610cdc565b505050565b6060600654421015610a1857600080fd5b6000610a2261057e565b9050600160008281526020019081526020016000206001018054610a4590611541565b80601f0160208091040260200160405190810160405280929190818152602001828054610a7190611541565b8015610abe5780601f10610a9357610100808354040283529160200191610abe565b820191906000526020600020905b815481529060010190602001808311610aa157829003601f168201915b505050505091505090565b7f5778c2f7d924e55986d549d645f53119b71708389fc2011260c8a657c569fcaa81565b60007f01ffc9a7000000000000000000000000000000000000000000000000000000007bffffffffffffffffffffffffffffffffffffffffffffffffffffffff1916827bffffffffffffffffffffffffffffffffffffffffffffffffffffffff1916149050919050565b600033905090565b610b698282610883565b610bf857610b8e8173ffffffffffffffffffffffffffffffffffffffff166014610dbd565b610b9c8360001c6020610dbd565b604051602001610bad929190611264565b6040516020818303038152906040526040517f08c379a0000000000000000000000000000000000000000000000000000000008152600401610bef91906112d4565b60405180910390fd5b5050565b610c068282610883565b610cd857600160008084815260200190815260200160002060000160008373ffffffffffffffffffffffffffffffffffffffff1673ffffffffffffffffffffffffffffffffffffffff16815260200190815260200160002060006101000a81548160ff021916908315150217905550610c7d610b57565b73ffffffffffffffffffffffffffffffffffffffff168173ffffffffffffffffffffffffffffffffffffffff16837f2f8788117e7eff1d82e926ec794901d17c78024a50270940304540a733656f0d60405160405180910390a45b5050565b610ce68282610883565b15610db957600080600084815260200190815260200160002060000160008373ffffffffffffffffffffffffffffffffffffffff1673ffffffffffffffffffffffffffffffffffffffff16815260200190815260200160002060006101000a81548160ff021916908315150217905550610d5e610b57565b73ffffffffffffffffffffffffffffffffffffffff168173ffffffffffffffffffffffffffffffffffffffff16837ff6391f5c32d9c69d2a47ea670b442974b53935d1edc7fd64eb21e047a839171b60405160405180910390a45b5050565b606060006002836002610dd0919061140c565b610dda91906113b6565b67ffffffffffffffff811115610df357610df2611649565b5b6040519080825280601f01601f191660200182016040528015610e255781602001600182028036833780820191505090505b5090507f300000000000000000000000000000000000000000000000000000000000000081600081518110610e5d57610e5c61161a565b5b60200101907effffffffffffffffffffffffffffffffffffffffffffffffffffffffffffff1916908160001a9053507f780000000000000000000000000000000000000000000000000000000000000081600181518110610ec157610ec061161a565b5b60200101907effffffffffffffffffffffffffffffffffffffffffffffffffffffffffffff1916908160001a90535060006001846002610f01919061140c565b610f0b91906113b6565b90505b6001811115610fab577f3031323334353637383961626364656600000000000000000000000000000000600f861660108110610f4d57610f4c61161a565b5b1a60f81b828281518110610f6457610f6361161a565b5b60200101907effffffffffffffffffffffffffffffffffffffffffffffffffffffffffffff1916908160001a905350600485901c945080610fa490611517565b9050610f0e565b5060008414610fef576040517f08c379a0000000000000000000000000000000000000000000000000000000008152600401610fe6906112f6565b60405180910390fd5b8091505092915050565b60008135905061100881611758565b92915050565b60008135905061101d8161176f565b92915050565b60008135905061103281611786565b92915050565b6000813590506110478161179d565b92915050565b60006020828403121561106357611062611678565b5b600061107184828501610ff9565b91505092915050565b6000602082840312156110905761108f611678565b5b600061109e8482850161100e565b91505092915050565b600080604083850312156110be576110bd611678565b5b60006110cc8582860161100e565b92505060206110dd85828601610ff9565b9150509250929050565b6000602082840312156110fd576110fc611678565b5b600061110b84828501611023565b91505092915050565b60006020828403121561112a57611129611678565b5b600061113884828501611038565b91505092915050565b61114a81611478565b82525050565b61115981611484565b82525050565b600061116a8261138f565b611174818561139a565b93506111848185602086016114e4565b61118d8161167d565b840191505092915050565b60006111a38261138f565b6111ad81856113ab565b93506111bd8185602086016114e4565b80840191505092915050565b60006111d660208361139a565b91506111e18261168e565b602082019050919050565b60006111f96017836113ab565b9150611204826116b7565b601782019050919050565b600061121c6011836113ab565b9150611227826116e0565b601182019050919050565b600061123f602f8361139a565b915061124a82611709565b604082019050919050565b61125e816114da565b82525050565b600061126f826111ec565b915061127b8285611198565b91506112868261120f565b91506112928284611198565b91508190509392505050565b60006020820190506112b36000830184611141565b92915050565b60006020820190506112ce6000830184611150565b92915050565b600060208201905081810360008301526112ee818461115f565b905092915050565b6000602082019050818103600083015261130f816111c9565b9050919050565b6000602082019050818103600083015261132f81611232565b9050919050565b600060208201905061134b6000830184611255565b92915050565b60006060820190506113666000830186611255565b8181036020830152611378818561115f565b90506113876040830184611255565b949350505050565b600081519050919050565b600082825260208201905092915050565b600081905092915050565b60006113c1826114da565b91506113cc836114da565b9250827fffffffffffffffffffffffffffffffffffffffffffffffffffffffffffffffff03821115611401576114006115bc565b5b828201905092915050565b6000611417826114da565b9150611422836114da565b9250817fffffffffffffffffffffffffffffffffffffffffffffffffffffffffffffffff048311821515161561145b5761145a6115bc565b5b828202905092915050565b6000611471826114ba565b9050919050565b60008115159050919050565b6000819050919050565b60007fffffffff0000000000000000000000000000000000000000000000000000000082169050919050565b600073ffffffffffffffffffffffffffffffffffffffff82169050919050565b6000819050919050565b60005b838110156115025780820151818401526020810190506114e7565b83811115611511576000848401525b50505050565b6000611522826114da565b91506000821415611536576115356115bc565b5b600182039050919050565b6000600282049050600182168061155957607f821691505b6020821081141561156d5761156c6115eb565b5b50919050565b600061157e826114da565b91507fffffffffffffffffffffffffffffffffffffffffffffffffffffffffffffffff8214156115b1576115b06115bc565b5b600182019050919050565b7f4e487b7100000000000000000000000000000000000000000000000000000000600052601160045260246000fd5b7f4e487b7100000000000000000000000000000000000000000000000000000000600052602260045260246000fd5b7f4e487b7100000000000000000000000000000000000000000000000000000000600052603260045260246000fd5b7f4e487b7100000000000000000000000000000000000000000000000000000000600052604160045260246000fd5b600080fd5b6000601f19601f8301169050919050565b7f537472696e67733a20686578206c656e67746820696e73756666696369656e74600082015250565b7f416363657373436f6e74726f6c3a206163636f756e7420000000000000000000600082015250565b7f206973206d697373696e6720726f6c6520000000000000000000000000000000600082015250565b7f416363657373436f6e74726f6c3a2063616e206f6e6c792072656e6f756e636560008201527f20726f6c657320666f722073656c660000000000000000000000000000000000602082015250565b61176181611466565b811461176c57600080fd5b50565b61177881611484565b811461178357600080fd5b50565b61178f8161148e565b811461179a57600080fd5b50565b6117a6816114da565b81146117b157600080fd5b5056fea26469706673582212200555807c0faeea55cf8cb4030bd7033414c044f8340862ccfe6033850681a89164736f6c63430008060033",
  "immutableReferences": {},
  "source": "// SPDX-License-Identifier: MIT\r\npragma solidity >=0.4.22 <0.9.0;\r\nimport \"@openzeppelin/contracts/access/AccessControl.sol\";\r\n\r\ncontract VotingSystem is AccessControl{\r\n    \r\n    struct Voters{\r\n         bool voted;\r\n        uint id;\r\n        uint weight;\r\n        \r\n    }\r\n    struct Proposal{\r\n        uint ProposalId;\r\n        string ProposalName;\r\n        uint votecount;\r\n        \r\n    }\r\n    bytes32 public constant CHAIRMAN = keccak256(\"CHAIRMAN\");\r\n\r\n  \r\n    mapping(uint=> Proposal) public ProposalsStore;\r\n    mapping(address=>Voters) Voterstore;\r\n    \r\n    uint ProposalId=0;\r\n    uint createdtime;\r\n    uint start;\r\n    uint end;\r\n    \r\n    \r\n    constructor(uint _start, uint _end) {\r\n       _setupRole(CHAIRMAN, msg.sender);\r\n      createdtime=block.timestamp;  \r\n      start=createdtime+ _start;\r\n      end=createdtime+ _end;\r\n      _addProposals(\"Proposal 1\");\r\n      _addProposals(\"Proposal 2\");\r\n      _addProposals(\"Proposal 3\");\r\n        \r\n    }\r\n    function _addProposals(string memory _ProposalName) private {\r\n        ProposalId++;\r\n        ProposalsStore[ProposalId]= Proposal(ProposalId, _ProposalName,0);\r\n        \r\n    }\r\n    function giveRightToVote(address Voteraddress) public onlyRole (CHAIRMAN){\r\n        require(block.timestamp>=start && block.timestamp<=end);\r\n        require(Voterstore[Voteraddress].weight == 0);\r\n        Voterstore[Voteraddress].weight =1;\r\n        \r\n        \r\n    }\r\n    function delegatevote(address to) public{\r\n        require(block.timestamp>=start && block.timestamp<=end);\r\n        require(Voterstore[msg.sender].weight >= 1);\r\n        require(Voterstore[to].weight >= 1);\r\n        Voterstore[to].weight =Voterstore[to].weight+Voterstore[msg.sender].weight;\r\n        Voterstore[msg.sender].weight = 0;\r\n        \r\n    }\r\n    \r\n    function vote(uint _proposalId) public {\r\n        require(block.timestamp>=start && block.timestamp<=end);\r\n        require(Voterstore[msg.sender].voted == false);\r\n        require(_proposalId<=ProposalId);\r\n        ProposalsStore[_proposalId].votecount = ProposalsStore[_proposalId].votecount+ Voterstore[msg.sender].weight;\r\n        Voterstore[msg.sender].voted=true;\r\n        \r\n        \r\n    }\r\n    function winningProposal() view public returns(uint winningproposalid){\r\n        require(block.timestamp>=end);\r\n        uint winningProposalvote;\r\n        \r\n        for(uint i=1;i<=ProposalId;i++)\r\n        {\r\n            if(ProposalsStore[i].votecount>winningProposalvote)\r\n            {\r\n                winningProposalvote= ProposalsStore[i].votecount;\r\n                winningproposalid =i;\r\n            }\r\n            \r\n        }\r\n        \r\n        \r\n    }\r\n    function winner() view public returns(string memory winnername){\r\n        require(block.timestamp>=end);\r\n        uint winnerid= winningProposal();\r\n        winnername = ProposalsStore[winnerid].ProposalName;\r\n    }\r\n}\r\n",
  "sourcePath": "C:/Users/Acer/Desktop/Building-Applications-In-Blockchain-Guide/Program2-Simple_Voting_System/contracts/VotingSystem.sol",
  "compiler": {
    "name": "solc",
    "version": "0.8.6+commit.11564f7e.Emscripten.clang"
  },
  "schemaVersion": "3.4.1",
  "updatedAt": "2021-07-27T06:33:16.984Z",
  "networkType": "ethereum",
  "devdoc": {
    "kind": "dev",
    "methods": {
      "getRoleAdmin(bytes32)": {
        "details": "Returns the admin role that controls `role`. See {grantRole} and {revokeRole}. To change a role's admin, use {_setRoleAdmin}."
      },
      "grantRole(bytes32,address)": {
        "details": "Grants `role` to `account`. If `account` had not been already granted `role`, emits a {RoleGranted} event. Requirements: - the caller must have ``role``'s admin role."
      },
      "hasRole(bytes32,address)": {
        "details": "Returns `true` if `account` has been granted `role`."
      },
      "renounceRole(bytes32,address)": {
        "details": "Revokes `role` from the calling account. Roles are often managed via {grantRole} and {revokeRole}: this function's purpose is to provide a mechanism for accounts to lose their privileges if they are compromised (such as when a trusted device is misplaced). If the calling account had been granted `role`, emits a {RoleRevoked} event. Requirements: - the caller must be `account`."
      },
      "revokeRole(bytes32,address)": {
        "details": "Revokes `role` from `account`. If `account` had been granted `role`, emits a {RoleRevoked} event. Requirements: - the caller must have ``role``'s admin role."
      },
      "supportsInterface(bytes4)": {
        "details": "See {IERC165-supportsInterface}."
      }
    },
    "version": 1
  },
  "userdoc": {
    "kind": "user",
    "methods": {},
    "version": 1
  }
}