{
  "contractName": "VotingSystem",
  "abi": [
    {
      "inputs": [
        {
          "internalType": "uint256",
          "name": "_start",
          "type": "uint256"
        },
        {
          "internalType": "uint256",
          "name": "_end",
          "type": "uint256"
        }
      ],
      "payable": false,
      "stateMutability": "nonpayable",
      "type": "constructor"
    },
    {
      "constant": true,
      "inputs": [],
      "name": "vote",
      "outputs": [
        {
          "internalType": "string",
          "name": "",
          "type": "string"
        }
      ],
      "payable": false,
      "stateMutability": "view",
      "type": "function"
    }
  ],
  "bytecode": "0x608060405234801561001057600080fd5b506040516101be3803806101be8339818101604052604081101561003357600080fd5b810190808051906020019092919080519060200190929190505050426000819055508142016001819055508042016002819055505050610146806100786000396000f3fe608060405234801561001057600080fd5b506004361061002b5760003560e01c8063632a9a5214610030575b600080fd5b6100386100b3565b6040518080602001828103825283818151815260200191508051906020019080838360005b8381101561007857808201518184015260208101905061005d565b50505050905090810190601f1680156100a55780820380516001836020036101000a031916815260200191505b509250505060405180910390f35b606060015442101580156100cd5750600254600054014211155b6100d657600080fd5b6040518060400160405280600881526020017f63616e20766f746500000000000000000000000000000000000000000000000081525090509056fea265627a7a723158200055c28580f1b66bcb516a750884b203e349bf43d4df03b90426f5e9aef5997464736f6c63430005100032",
  "source": "pragma solidity >=0.4.22 <0.9.0;\r\n\r\ncontract VotingSystem{\r\n    \r\n    struct Voters{\r\n         bool voted;\r\n        uint id;\r\n        \r\n    }\r\n    struct Proposal{\r\n        uint ProposalId;\r\n        string ProposalName;\r\n        uint votecount;\r\n        \r\n    }\r\n    uint createdtime;\r\n    uint start;\r\n    uint end;\r\n    \r\n    constructor(uint _start, uint _end) public {\r\n      createdtime=block.timestamp;  \r\n      start=block.timestamp+ _start;\r\n      end=block.timestamp+ _end;\r\n        \r\n    }\r\n    \r\n    function vote() public view returns(string memory) {\r\n        require(block.timestamp>=start && block.timestamp<=createdtime+end);\r\n          return 'can vote'; \r\n        \r\n    }\r\n}",
  "sourcePath": "C:/Users/Acer/Desktop/Building-Applications-In-Blockchain-Guide/Program2-voting-system/contracts/VotingSystem.sol",
  "compiler": {
    "name": "solc",
    "version": "0.5.16+commit.9c3226ce.Emscripten.clang"
  },
  "schemaVersion": "3.4.1",
  "updatedAt": "2021-07-22T08:18:23.553Z",
  "devdoc": {
    "methods": {}
  },
  "userdoc": {
    "methods": {}
  }
}