{
  "contractName": "VotingSystem",
  "abi": [
    {
      "inputs": [],
      "payable": false,
      "stateMutability": "nonpayable",
      "type": "constructor"
    },
    {
      "constant": true,
      "inputs": [],
      "name": "vote",
      "outputs": [
        {
          "internalType": "string",
          "name": "",
          "type": "string"
        }
      ],
      "payable": false,
      "stateMutability": "view",
      "type": "function"
    }
  ],
  "bytecode": "0x608060405234801561001057600080fd5b504260008190555061012e806100276000396000f3fe6080604052348015600f57600080fd5b506004361060285760003560e01c8063632a9a5214602d575b600080fd5b603360ab565b6040518080602001828103825283818151815260200191508051906020019080838360005b8381101560715780820151818401526020810190506058565b50505050905090810190601f168015609d5780820380516001836020036101000a031916815260200191505b509250505060405180910390f35b606060146000540142111560be57600080fd5b6040518060400160405280600881526020017f63616e20766f746500000000000000000000000000000000000000000000000081525090509056fea265627a7a72315820823d5aa6b9b4f2282bbda44af7d4f9b31fa9d335fd67572a645de07d6dbe40cf64736f6c63430005100032",
  "source": "pragma solidity >=0.4.22 <0.9.0;\r\n\r\ncontract VotingSystem{\r\n    \r\n    struct Voters{\r\n        bool voted;\r\n        \r\n    }\r\n    struct Proposal{\r\n        uint ProposalId;\r\n        string ProposalName;\r\n        uint votecount;\r\n        \r\n    }\r\n    uint createdtime;\r\n    \r\n    constructor() public {\r\n      createdtime=block.timestamp;  \r\n        \r\n    }\r\n    \r\n    function vote() public view returns(string memory) {\r\n        require(block.timestamp<=createdtime+20);\r\n          return 'can vote';  \r\n        \r\n        \r\n    }\r\n}",
  "sourcePath": "C:/Users/Acer/Desktop/Building-Applications-In-Blockchain-Guide/Program2-voting-system/contracts/VotingSystem.sol",
  "compiler": {
    "name": "solc",
    "version": "0.5.16+commit.9c3226ce.Emscripten.clang"
  },
  "schemaVersion": "3.4.1",
  "updatedAt": "2021-07-22T08:00:54.369Z",
  "devdoc": {
    "methods": {}
  },
  "userdoc": {
    "methods": {}
  }
}