{
  "contractName": "StudentRecords",
  "abi": [
    {
      "constant": false,
      "inputs": [],
      "name": "redeemEther",
      "outputs": [],
      "payable": false,
      "stateMutability": "nonpayable",
      "type": "function"
    },
    {
      "constant": true,
      "inputs": [],
      "name": "balanceof",
      "outputs": [
        {
          "internalType": "uint256",
          "name": "",
          "type": "uint256"
        }
      ],
      "payable": false,
      "stateMutability": "view",
      "type": "function"
    },
    {
      "constant": false,
      "inputs": [],
      "name": "depositether",
      "outputs": [],
      "payable": true,
      "stateMutability": "payable",
      "type": "function"
    },
    {
      "constant": false,
      "inputs": [
        {
          "internalType": "string",
          "name": "_name",
          "type": "string"
        },
        {
          "internalType": "uint256",
          "name": "_rollno",
          "type": "uint256"
        },
        {
          "internalType": "uint256",
          "name": "_percentage",
          "type": "uint256"
        }
      ],
      "name": "registerStudent",
      "outputs": [],
      "payable": false,
      "stateMutability": "nonpayable",
      "type": "function"
    },
    {
      "constant": true,
      "inputs": [],
      "name": "getstudents",
      "outputs": [
        {
          "internalType": "uint256",
          "name": "",
          "type": "uint256"
        },
        {
          "internalType": "string",
          "name": "",
          "type": "string"
        },
        {
          "internalType": "uint256",
          "name": "",
          "type": "uint256"
        },
        {
          "internalType": "uint256",
          "name": "",
          "type": "uint256"
        },
        {
          "internalType": "bool",
          "name": "",
          "type": "bool"
        }
      ],
      "payable": false,
      "stateMutability": "view",
      "type": "function"
    },
    {
      "constant": false,
      "inputs": [
        {
          "internalType": "uint256",
          "name": "_id",
          "type": "uint256"
        },
        {
          "internalType": "string",
          "name": "_name",
          "type": "string"
        },
        {
          "internalType": "uint256",
          "name": "_rollno",
          "type": "uint256"
        },
        {
          "internalType": "uint256",
          "name": "_percentage",
          "type": "uint256"
        }
      ],
      "name": "updateStudent",
      "outputs": [],
      "payable": false,
      "stateMutability": "nonpayable",
      "type": "function"
    },
    {
      "constant": false,
      "inputs": [],
      "name": "deleteStudent",
      "outputs": [],
      "payable": false,
      "stateMutability": "nonpayable",
      "type": "function"
    }
  ],
  "bytecode": "0x60806040526000805534801561001457600080fd5b50610d9c806100246000396000f3fe6080604052600436106100705760003560e01c8063563d94601161004e578063563d94601461022c578063b46be15e14610312578063e621b5df1461031c578063ec02547f1461033357610070565b806324ff8a1b146100755780632980a5d31461012557806330bf31db14610150575b600080fd5b34801561008157600080fd5b5061008a61034a565b604051808681526020018060200185815260200184815260200183151515158152602001828103825286818151815260200191508051906020019080838360005b838110156100e65780820151818401526020810190506100cb565b50505050905090810190601f1680156101135780820380516001836020036101000a031916815260200191505b50965050505050505060405180910390f35b34801561013157600080fd5b5061013a61055b565b6040518082815260200191505060405180910390f35b34801561015c57600080fd5b5061022a6004803603606081101561017357600080fd5b810190808035906020019064010000000081111561019057600080fd5b8201836020820111156101a257600080fd5b803590602001918460018302840111640100000000831117156101c457600080fd5b91908080601f016020809104026020016040519081016040528093929190818152602001838380828437600081840152601f19601f8201169050808301925050505050505091929192908035906020019092919080359060200190929190505050610563565b005b34801561023857600080fd5b506103106004803603608081101561024f57600080fd5b81019080803590602001909291908035906020019064010000000081111561027657600080fd5b82018360208201111561028857600080fd5b803590602001918460018302840111640100000000831117156102aa57600080fd5b91908080601f016020809104026020016040519081016040528093929190818152602001838380828437600081840152601f19601f8201169050808301925050505050505091929192908035906020019092919080359060200190929190505050610730565b005b61031a610954565b005b34801561032857600080fd5b50610331610956565b005b34801561033f57600080fd5b50610348610ae2565b005b600060606000806000600260003373ffffffffffffffffffffffffffffffffffffffff1673ffffffffffffffffffffffffffffffffffffffff16815260200190815260200160002060000154600260003373ffffffffffffffffffffffffffffffffffffffff1673ffffffffffffffffffffffffffffffffffffffff168152602001908152602001600020600101600260003373ffffffffffffffffffffffffffffffffffffffff1673ffffffffffffffffffffffffffffffffffffffff16815260200190815260200160002060020154600260003373ffffffffffffffffffffffffffffffffffffffff1673ffffffffffffffffffffffffffffffffffffffff16815260200190815260200160002060030154600260003373ffffffffffffffffffffffffffffffffffffffff1673ffffffffffffffffffffffffffffffffffffffff16815260200190815260200160002060040160009054906101000a900460ff16838054600181600116156101000203166002900480601f0160208091040260200160405190810160405280929190818152602001828054600181600116156101000203166002900480156105435780601f1061051857610100808354040283529160200191610543565b820191906000526020600020905b81548152906001019060200180831161052657829003601f168201915b50505050509350945094509450945094509091929394565b600047905090565b6000600360003373ffffffffffffffffffffffffffffffffffffffff1673ffffffffffffffffffffffffffffffffffffffff16815260200190815260200160002054146105af57600080fd5b600360003373ffffffffffffffffffffffffffffffffffffffff1673ffffffffffffffffffffffffffffffffffffffff168152602001908152602001600020600081548092919060010191905055506040518060a00160405280600054815260200184815260200183815260200182815260200160001515815250600260003373ffffffffffffffffffffffffffffffffffffffff1673ffffffffffffffffffffffffffffffffffffffff16815260200190815260200160002060008201518160000155602082015181600101908051906020019061068f929190610bfa565b50604082015181600201556060820151816003015560808201518160040160006101000a81548160ff02191690831515021790555090505033600160008054815260200190815260200160002060006101000a81548173ffffffffffffffffffffffffffffffffffffffff021916908373ffffffffffffffffffffffffffffffffffffffff1602179055506000808154809291906001019190505550505050565b610738610b62565b156108e0573373ffffffffffffffffffffffffffffffffffffffff166001600086815260200190815260200160002060009054906101000a900473ffffffffffffffffffffffffffffffffffffffff1673ffffffffffffffffffffffffffffffffffffffff16146107a857600080fd5b83600260003373ffffffffffffffffffffffffffffffffffffffff1673ffffffffffffffffffffffffffffffffffffffff16815260200190815260200160002060000154146107f657600080fd5b82600260003373ffffffffffffffffffffffffffffffffffffffff1673ffffffffffffffffffffffffffffffffffffffff168152602001908152602001600020600101908051906020019061084c929190610c7a565b5081600260003373ffffffffffffffffffffffffffffffffffffffff1673ffffffffffffffffffffffffffffffffffffffff1681526020019081526020016000206002018190555080600260003373ffffffffffffffffffffffffffffffffffffffff1673ffffffffffffffffffffffffffffffffffffffff1681526020019081526020016000206003018190555061094e565b6040517f08c379a00000000000000000000000000000000000000000000000000000000081526004018080602001828103825260158152602001807f596f75206172656e6f742072656769737465726564000000000000000000000081525060200191505060405180910390fd5b50505050565b565b61095e610b62565b15610a725760001515600260003373ffffffffffffffffffffffffffffffffffffffff1673ffffffffffffffffffffffffffffffffffffffff16815260200190815260200160002060040160009054906101000a900460ff161515146109c357600080fd5b3373ffffffffffffffffffffffffffffffffffffffff166108fc670de0b6b3a76400009081150290604051600060405180830381858888f19350505050158015610a11573d6000803e3d6000fd5b506001600260003373ffffffffffffffffffffffffffffffffffffffff1673ffffffffffffffffffffffffffffffffffffffff16815260200190815260200160002060040160006101000a81548160ff021916908315150217905550610ae0565b6040517f08c379a00000000000000000000000000000000000000000000000000000000081526004018080602001828103825260168152602001807f596f7520617265206e6f7420726567697374657265640000000000000000000081525060200191505060405180910390fd5b565b600260003373ffffffffffffffffffffffffffffffffffffffff1673ffffffffffffffffffffffffffffffffffffffff168152602001908152602001600020600080820160009055600182016000610b3a9190610cfa565b600282016000905560038201600090556004820160006101000a81549060ff02191690555050565b600080600090505b6000548111610bf1573373ffffffffffffffffffffffffffffffffffffffff166001600083815260200190815260200160002060009054906101000a900473ffffffffffffffffffffffffffffffffffffffff1673ffffffffffffffffffffffffffffffffffffffff161415610be4576001915050610bf7565b8080600101915050610b6a565b50600090505b90565b828054600181600116156101000203166002900490600052602060002090601f016020900481019282601f10610c3b57805160ff1916838001178555610c69565b82800160010185558215610c69579182015b82811115610c68578251825591602001919060010190610c4d565b5b509050610c769190610d42565b5090565b828054600181600116156101000203166002900490600052602060002090601f016020900481019282601f10610cbb57805160ff1916838001178555610ce9565b82800160010185558215610ce9579182015b82811115610ce8578251825591602001919060010190610ccd565b5b509050610cf69190610d42565b5090565b50805460018160011615610100020316600290046000825580601f10610d205750610d3f565b601f016020900490600052602060002090810190610d3e9190610d42565b5b50565b610d6491905b80821115610d60576000816000905550600101610d48565b5090565b9056fea265627a7a72315820b348476bf806621123d2c8cb7aec1252a3d098272460ae6aed5bc2818708add064736f6c63430005100032",
  "source": "pragma solidity >=0.4.22 <0.9.0;\r\n\r\ncontract StudentRecords {\r\n    uint StudentId =0;\r\n    \r\n    \r\n    struct Student {\r\n        uint id;\r\n        string name;\r\n        uint rollNo;\r\n        uint percentage;\r\n        bool redeemed;\r\n        \r\n        \r\n    }\r\n    // event AddStudent(string name, uint rollNo, uint percentage);\r\n    // event EditStudent(uint id, string  name, uint rollno, uint percentage);\r\n\r\n    mapping(uint => address) studentToAddress;\r\n    mapping(address => Student) students;\r\n    mapping(address => uint) registration;\r\n   \r\n   \r\n\r\n    // Payable constructor can receive Ether\r\n    \r\n    function redeemEther() public {\r\n        // address payable studentaddress =payable(msg.sender);\r\n        if(_checkforrecord())\r\n        {\r\n        require(students[msg.sender].redeemed == false);\r\n        msg.sender.transfer(1 ether);\r\n        students[msg.sender].redeemed = true;\r\n        }\r\n        \r\n        else{\r\n            revert('You are not registered');\r\n            \r\n        }\r\n        \r\n    }\r\n     function balanceof() external view returns(uint) {\r\n        \r\n        return address(this).balance;\r\n    }\r\n    \r\n    function depositether() external payable{\r\n        \r\n        \r\n    }\r\n\r\n    \r\n    function registerStudent(string memory _name, uint _rollno, uint _percentage) public {\r\n        require(registration[msg.sender]==0);\r\n        registration[msg.sender]++;\r\n        students[msg.sender] = Student(StudentId, _name, _rollno, _percentage,false);\r\n        studentToAddress[StudentId]= msg.sender;\r\n        // emit AddStudent(_name, _rollno, _percentage);\r\n        StudentId++;\r\n    \r\n        \r\n    }\r\n    \r\n    function getstudents() view public returns(uint,string memory,uint,uint,bool ){\r\n    \r\n            \r\n           return(students[msg.sender].id,students[msg.sender].name, students[msg.sender].rollNo, students[msg.sender].percentage, students[msg.sender].redeemed);\r\n        \r\n        \r\n    }\r\n    \r\n    function updateStudent(uint _id, string memory _name, uint _rollno, uint _percentage) public{\r\n        \r\n        if(_checkforrecord())\r\n        {\r\n             require(studentToAddress[_id] == msg.sender);\r\n        require(students[msg.sender].id==_id);\r\n        \r\n        students[msg.sender].name = _name;\r\n        students[msg.sender].rollNo= _rollno;\r\n        students[msg.sender].percentage=_percentage;\r\n        // emit EditStudent(_id, _name, _rollno, _percentage);\r\n        } else{\r\n            revert('You arenot registered');\r\n        }\r\n        \r\n       \r\n    }\r\n    \r\n    function deleteStudent() public{\r\n    \r\n    \r\n    delete students[msg.sender];\r\n    \r\n   \r\n    \r\n}\r\nfunction _checkforrecord() private view returns(bool) {\r\n    for(uint i=0;i<=StudentId;i++)\r\n    {\r\n        if(studentToAddress[i]==msg.sender){\r\n            return true;\r\n        }\r\n    }\r\n    return false;\r\n}\r\n}",
  "sourcePath": "C:/Users/Acer/Desktop/Building-Applications-In-Blockchain-Guide/Program1-student-record/contracts/StudentRecord.sol",
  "compiler": {
    "name": "solc",
    "version": "0.5.16+commit.9c3226ce.Emscripten.clang"
  },
  "schemaVersion": "3.4.1",
  "updatedAt": "2021-07-22T10:58:47.546Z",
  "networkType": "ethereum",
  "devdoc": {
    "methods": {}
  },
  "userdoc": {
    "methods": {}
  }
}