{
  "contractName": "StudentRecords",
  "abi": [
    {
      "constant": false,
      "inputs": [
        {
          "internalType": "string",
          "name": "_name",
          "type": "string"
        },
        {
          "internalType": "uint256",
          "name": "_rollno",
          "type": "uint256"
        },
        {
          "internalType": "uint256",
          "name": "_percentage",
          "type": "uint256"
        }
      ],
      "name": "registerStudent",
      "outputs": [],
      "payable": false,
      "stateMutability": "nonpayable",
      "type": "function"
    },
    {
      "constant": true,
      "inputs": [],
      "name": "getstudents",
      "outputs": [
        {
          "internalType": "uint256",
          "name": "",
          "type": "uint256"
        },
        {
          "internalType": "string",
          "name": "",
          "type": "string"
        },
        {
          "internalType": "uint256",
          "name": "",
          "type": "uint256"
        },
        {
          "internalType": "uint256",
          "name": "",
          "type": "uint256"
        }
      ],
      "payable": false,
      "stateMutability": "view",
      "type": "function"
    },
    {
      "constant": false,
      "inputs": [
        {
          "internalType": "uint256",
          "name": "_id",
          "type": "uint256"
        },
        {
          "internalType": "string",
          "name": "_name",
          "type": "string"
        },
        {
          "internalType": "uint256",
          "name": "_rollno",
          "type": "uint256"
        },
        {
          "internalType": "uint256",
          "name": "_percentage",
          "type": "uint256"
        }
      ],
      "name": "updateStudent",
      "outputs": [],
      "payable": false,
      "stateMutability": "nonpayable",
      "type": "function"
    },
    {
      "constant": false,
      "inputs": [],
      "name": "deleteStudent",
      "outputs": [],
      "payable": false,
      "stateMutability": "nonpayable",
      "type": "function"
    }
  ],
  "bytecode": "0x60806040526000805534801561001457600080fd5b506109ad806100246000396000f3fe608060405234801561001057600080fd5b506004361061004c5760003560e01c806324ff8a1b1461005157806330bf31db146100e9578063563d9460146101b8578063ec02547f14610291575b600080fd5b61005961029b565b6040518085815260200180602001848152602001838152602001828103825285818151815260200191508051906020019080838360005b838110156100ab578082015181840152602081019050610090565b50505050905090810190601f1680156100d85780820380516001836020036101000a031916815260200191505b509550505050505060405180910390f35b6101b6600480360360608110156100ff57600080fd5b810190808035906020019064010000000081111561011c57600080fd5b82018360208201111561012e57600080fd5b8035906020019184600183028401116401000000008311171561015057600080fd5b91908080601f016020809104026020016040519081016040528093929190818152602001838380828437600081840152601f19601f8201169050808301925050505050505091929192908035906020019092919080359060200190929190505050610457565b005b61028f600480360360808110156101ce57600080fd5b8101908080359060200190929190803590602001906401000000008111156101f557600080fd5b82018360208201111561020757600080fd5b8035906020019184600183028401116401000000008311171561022957600080fd5b91908080601f016020809104026020016040519081016040528093929190818152602001838380828437600081840152601f19601f82011690508083019250505050505050919291929080359060200190929190803590602001909291905050506105fb565b005b61029961079f565b005b60006060600080600260003373ffffffffffffffffffffffffffffffffffffffff1673ffffffffffffffffffffffffffffffffffffffff16815260200190815260200160002060000154600260003373ffffffffffffffffffffffffffffffffffffffff1673ffffffffffffffffffffffffffffffffffffffff168152602001908152602001600020600101600260003373ffffffffffffffffffffffffffffffffffffffff1673ffffffffffffffffffffffffffffffffffffffff16815260200190815260200160002060020154600260003373ffffffffffffffffffffffffffffffffffffffff1673ffffffffffffffffffffffffffffffffffffffff16815260200190815260200160002060030154828054600181600116156101000203166002900480601f0160208091040260200160405190810160405280929190818152602001828054600181600116156101000203166002900480156104425780601f1061041757610100808354040283529160200191610442565b820191906000526020600020905b81548152906001019060200180831161042557829003601f168201915b50505050509250935093509350935090919293565b6000600360003373ffffffffffffffffffffffffffffffffffffffff1673ffffffffffffffffffffffffffffffffffffffff16815260200190815260200160002054146104a357600080fd5b600360003373ffffffffffffffffffffffffffffffffffffffff1673ffffffffffffffffffffffffffffffffffffffff168152602001908152602001600020600081548092919060010191905055506040518060800160405280600054815260200184815260200183815260200182815250600260003373ffffffffffffffffffffffffffffffffffffffff1673ffffffffffffffffffffffffffffffffffffffff16815260200190815260200160002060008201518160000155602082015181600101908051906020019061057a92919061080b565b50604082015181600201556060820151816003015590505033600160008054815260200190815260200160002060006101000a81548173ffffffffffffffffffffffffffffffffffffffff021916908373ffffffffffffffffffffffffffffffffffffffff1602179055506000808154809291906001019190505550505050565b3373ffffffffffffffffffffffffffffffffffffffff166001600086815260200190815260200160002060009054906101000a900473ffffffffffffffffffffffffffffffffffffffff1673ffffffffffffffffffffffffffffffffffffffff161461066657600080fd5b83600260003373ffffffffffffffffffffffffffffffffffffffff1673ffffffffffffffffffffffffffffffffffffffff16815260200190815260200160002060000154146106b457600080fd5b82600260003373ffffffffffffffffffffffffffffffffffffffff1673ffffffffffffffffffffffffffffffffffffffff168152602001908152602001600020600101908051906020019061070a92919061088b565b5081600260003373ffffffffffffffffffffffffffffffffffffffff1673ffffffffffffffffffffffffffffffffffffffff1681526020019081526020016000206002018190555080600260003373ffffffffffffffffffffffffffffffffffffffff1673ffffffffffffffffffffffffffffffffffffffff1681526020019081526020016000206003018190555050505050565b600260003373ffffffffffffffffffffffffffffffffffffffff1673ffffffffffffffffffffffffffffffffffffffff1681526020019081526020016000206000808201600090556001820160006107f7919061090b565b600282016000905560038201600090555050565b828054600181600116156101000203166002900490600052602060002090601f016020900481019282601f1061084c57805160ff191683800117855561087a565b8280016001018555821561087a579182015b8281111561087957825182559160200191906001019061085e565b5b5090506108879190610953565b5090565b828054600181600116156101000203166002900490600052602060002090601f016020900481019282601f106108cc57805160ff19168380011785556108fa565b828001600101855582156108fa579182015b828111156108f95782518255916020019190600101906108de565b5b5090506109079190610953565b5090565b50805460018160011615610100020316600290046000825580601f106109315750610950565b601f01602090049060005260206000209081019061094f9190610953565b5b50565b61097591905b80821115610971576000816000905550600101610959565b5090565b9056fea265627a7a723158205937eea40d083aeab3f8cfb49dad384aa54dfad79ee12be4827e0ff6b12c290e64736f6c63430005100032",
  "source": "pragma solidity >=0.4.22 <0.9.0;\r\n\r\ncontract StudentRecords {\r\n    uint StudentId =0;\r\n    \r\n    \r\n    struct Student {\r\n        uint id;\r\n        string name;\r\n        uint rollNo;\r\n        uint percentage;\r\n        \r\n        \r\n    }\r\n    // event AddStudent(string name, uint rollNo, uint percentage);\r\n    // event EditStudent(uint id, string  name, uint rollno, uint percentage);\r\n\r\n    mapping(uint => address) studentToAddress;\r\n    mapping(address => Student) students;\r\n    mapping(address => uint) count;\r\n    \r\n\r\n    \r\n    function registerStudent(string memory _name, uint _rollno, uint _percentage) public {\r\n        require(count[msg.sender]==0);\r\n        count[msg.sender]++;\r\n        students[msg.sender] = Student(StudentId, _name, _rollno, _percentage);\r\n        studentToAddress[StudentId]= msg.sender;\r\n        // emit AddStudent(_name, _rollno, _percentage);\r\n        StudentId++;\r\n    \r\n        \r\n    }\r\n    \r\n    function getstudents() view public returns(uint,string memory,uint,uint ){\r\n    \r\n            \r\n           return(students[msg.sender].id,students[msg.sender].name, students[msg.sender].rollNo, students[msg.sender].percentage);\r\n        \r\n        \r\n    }\r\n    \r\n    function updateStudent(uint _id, string memory _name, uint _rollno, uint _percentage) public{\r\n        \r\n        \r\n        \r\n        require(studentToAddress[_id] == msg.sender);\r\n        require(students[msg.sender].id==_id);\r\n        \r\n        students[msg.sender].name = _name;\r\n        students[msg.sender].rollNo= _rollno;\r\n        students[msg.sender].percentage=_percentage;\r\n        // emit EditStudent(_id, _name, _rollno, _percentage);\r\n    }\r\n    \r\n    function deleteStudent() public{\r\n    \r\n    \r\n    delete students[msg.sender];\r\n    \r\n   \r\n    \r\n}\r\n}\r\n\r\n// pragma solidity >= 0.5.0 <0.6.0;\r\n\r\n// contract StudentRecords {\r\n//     uint StudentId =0;\r\n    \r\n    \r\n//     struct Student {\r\n//         uint id;\r\n//         string name;\r\n//         uint rollNo;\r\n//         uint percentage;\r\n        \r\n        \r\n//     }\r\n \r\n//     mapping(uint => Student) public students;\r\n    \r\n    \r\n//     function registerStudent(string memory _name, uint _rollno, uint _percentage) public {\r\n//         students[StudentId] = Student(StudentId, _name, _rollno, _percentage);\r\n        \r\n//         StudentId++;\r\n        \r\n    \r\n        \r\n//     }\r\n    \r\n//     function updateStudent(uint _id, string memory _name, uint _rollno, uint _percentage) public{\r\n        \r\n        \r\n     \r\n//         students[_id].name = _name;\r\n//         students[_id].rollNo= _rollno;\r\n//         students[_id].percentage=_percentage;\r\n//     }\r\n    \r\n//     function deleteStudent(uint _id) public{\r\n    \r\n \r\n//     delete students[_id];\r\n// }\r\n// }",
  "sourcePath": "C:/Users/Acer/Desktop/Building-Applications-In-Blockchain-Guide/Program1-student-record/contracts/StudentRecord.sol",
  "compiler": {
    "name": "solc",
    "version": "0.5.16+commit.9c3226ce.Emscripten.clang"
  },
  "schemaVersion": "3.4.1",
  "updatedAt": "2021-07-21T07:25:45.825Z",
  "networkType": "ethereum",
  "devdoc": {
    "methods": {}
  },
  "userdoc": {
    "methods": {}
  }
}