{
  "contractName": "MyToken",
  "abi": [
    {
      "inputs": [
        {
          "internalType": "string",
          "name": "_name",
          "type": "string"
        },
        {
          "internalType": "string",
          "name": "_symbol",
          "type": "string"
        }
      ],
      "stateMutability": "nonpayable",
      "type": "constructor"
    },
    {
      "anonymous": false,
      "inputs": [
        {
          "indexed": true,
          "internalType": "address",
          "name": "owner",
          "type": "address"
        },
        {
          "indexed": true,
          "internalType": "address",
          "name": "spender",
          "type": "address"
        },
        {
          "indexed": false,
          "internalType": "uint256",
          "name": "value",
          "type": "uint256"
        }
      ],
      "name": "Approval",
      "type": "event"
    },
    {
      "anonymous": false,
      "inputs": [
        {
          "indexed": true,
          "internalType": "address",
          "name": "from",
          "type": "address"
        },
        {
          "indexed": true,
          "internalType": "address",
          "name": "to",
          "type": "address"
        },
        {
          "indexed": false,
          "internalType": "uint256",
          "name": "value",
          "type": "uint256"
        }
      ],
      "name": "Transfer",
      "type": "event"
    },
    {
      "inputs": [
        {
          "internalType": "address",
          "name": "owner",
          "type": "address"
        },
        {
          "internalType": "address",
          "name": "spender",
          "type": "address"
        }
      ],
      "name": "allowance",
      "outputs": [
        {
          "internalType": "uint256",
          "name": "",
          "type": "uint256"
        }
      ],
      "stateMutability": "view",
      "type": "function",
      "constant": true
    },
    {
      "inputs": [
        {
          "internalType": "address",
          "name": "spender",
          "type": "address"
        },
        {
          "internalType": "uint256",
          "name": "amount",
          "type": "uint256"
        }
      ],
      "name": "approve",
      "outputs": [
        {
          "internalType": "bool",
          "name": "",
          "type": "bool"
        }
      ],
      "stateMutability": "nonpayable",
      "type": "function"
    },
    {
      "inputs": [
        {
          "internalType": "address",
          "name": "account",
          "type": "address"
        }
      ],
      "name": "balanceOf",
      "outputs": [
        {
          "internalType": "uint256",
          "name": "",
          "type": "uint256"
        }
      ],
      "stateMutability": "view",
      "type": "function",
      "constant": true
    },
    {
      "inputs": [],
      "name": "decimals",
      "outputs": [
        {
          "internalType": "uint8",
          "name": "",
          "type": "uint8"
        }
      ],
      "stateMutability": "view",
      "type": "function",
      "constant": true
    },
    {
      "inputs": [
        {
          "internalType": "address",
          "name": "spender",
          "type": "address"
        },
        {
          "internalType": "uint256",
          "name": "subtractedValue",
          "type": "uint256"
        }
      ],
      "name": "decreaseAllowance",
      "outputs": [
        {
          "internalType": "bool",
          "name": "",
          "type": "bool"
        }
      ],
      "stateMutability": "nonpayable",
      "type": "function"
    },
    {
      "inputs": [
        {
          "internalType": "address",
          "name": "spender",
          "type": "address"
        },
        {
          "internalType": "uint256",
          "name": "addedValue",
          "type": "uint256"
        }
      ],
      "name": "increaseAllowance",
      "outputs": [
        {
          "internalType": "bool",
          "name": "",
          "type": "bool"
        }
      ],
      "stateMutability": "nonpayable",
      "type": "function"
    },
    {
      "inputs": [],
      "name": "name",
      "outputs": [
        {
          "internalType": "string",
          "name": "",
          "type": "string"
        }
      ],
      "stateMutability": "view",
      "type": "function",
      "constant": true
    },
    {
      "inputs": [],
      "name": "symbol",
      "outputs": [
        {
          "internalType": "string",
          "name": "",
          "type": "string"
        }
      ],
      "stateMutability": "view",
      "type": "function",
      "constant": true
    },
    {
      "inputs": [],
      "name": "totalSupply",
      "outputs": [
        {
          "internalType": "uint256",
          "name": "",
          "type": "uint256"
        }
      ],
      "stateMutability": "view",
      "type": "function",
      "constant": true
    },
    {
      "inputs": [
        {
          "internalType": "address",
          "name": "recipient",
          "type": "address"
        },
        {
          "internalType": "uint256",
          "name": "amount",
          "type": "uint256"
        }
      ],
      "name": "transfer",
      "outputs": [
        {
          "internalType": "bool",
          "name": "",
          "type": "bool"
        }
      ],
      "stateMutability": "nonpayable",
      "type": "function"
    },
    {
      "inputs": [
        {
          "internalType": "address",
          "name": "sender",
          "type": "address"
        },
        {
          "internalType": "address",
          "name": "recipient",
          "type": "address"
        },
        {
          "internalType": "uint256",
          "name": "amount",
          "type": "uint256"
        }
      ],
      "name": "transferFrom",
      "outputs": [
        {
          "internalType": "bool",
          "name": "",
          "type": "bool"
        }
      ],
      "stateMutability": "nonpayable",
      "type": "function"
    },
    {
      "inputs": [],
      "name": "Purchase",
      "outputs": [],
      "stateMutability": "nonpayable",
      "type": "function"
    },
    {
      "inputs": [],
      "name": "redeemether",
      "outputs": [],
      "stateMutability": "nonpayable",
      "type": "function"
    },
    {
      "inputs": [],
      "name": "depositether",
      "outputs": [],
      "stateMutability": "payable",
      "type": "function",
      "payable": true
    }
  ],
  "bytecode": "0x60806040523480156200001157600080fd5b50604051620022f8380380620022f88339818101604052810190620000379190620003b3565b818181600390805190602001906200005192919062000291565b5080600490805190602001906200006a92919062000291565b50505033600560016101000a81548173ffffffffffffffffffffffffffffffffffffffff021916908373ffffffffffffffffffffffffffffffffffffffff160217905550620000ef33620000c3620000f760201b60201c565b60ff16600a620000d49190620005e8565b6103e8620000e3919062000725565b6200010e60201b60201c565b505062000896565b6000600560009054906101000a900460ff16905090565b600073ffffffffffffffffffffffffffffffffffffffff168273ffffffffffffffffffffffffffffffffffffffff16141562000181576040517f08c379a0000000000000000000000000000000000000000000000000000000008152600401620001789062000479565b60405180910390fd5b62000195600083836200028760201b60201c565b8060026000828254620001a9919062000530565b92505081905550806000808473ffffffffffffffffffffffffffffffffffffffff1673ffffffffffffffffffffffffffffffffffffffff168152602001908152602001600020600082825462000200919062000530565b925050819055508173ffffffffffffffffffffffffffffffffffffffff16600073ffffffffffffffffffffffffffffffffffffffff167fddf252ad1be2c89b69c2b068fc378daa952ba7f163c4a11628f55a4df523b3ef836040516200026791906200049b565b60405180910390a362000283600083836200028c60201b60201c565b5050565b505050565b505050565b8280546200029f90620007c6565b90600052602060002090601f016020900481019282620002c357600085556200030f565b82601f10620002de57805160ff19168380011785556200030f565b828001600101855582156200030f579182015b828111156200030e578251825591602001919060010190620002f1565b5b5090506200031e919062000322565b5090565b5b808211156200033d57600081600090555060010162000323565b5090565b6000620003586200035284620004ec565b620004b8565b9050828152602081018484840111156200037157600080fd5b6200037e84828562000790565b509392505050565b600082601f8301126200039857600080fd5b8151620003aa84826020860162000341565b91505092915050565b60008060408385031215620003c757600080fd5b600083015167ffffffffffffffff811115620003e257600080fd5b620003f08582860162000386565b925050602083015167ffffffffffffffff8111156200040e57600080fd5b6200041c8582860162000386565b9150509250929050565b600062000435601f836200051f565b91507f45524332303a206d696e7420746f20746865207a65726f2061646472657373006000830152602082019050919050565b620004738162000786565b82525050565b60006020820190508181036000830152620004948162000426565b9050919050565b6000602082019050620004b2600083018462000468565b92915050565b6000604051905081810181811067ffffffffffffffff82111715620004e257620004e16200085a565b5b8060405250919050565b600067ffffffffffffffff8211156200050a57620005096200085a565b5b601f19601f8301169050602081019050919050565b600082825260208201905092915050565b60006200053d8262000786565b91506200054a8362000786565b9250827fffffffffffffffffffffffffffffffffffffffffffffffffffffffffffffffff03821115620005825762000581620007fc565b5b828201905092915050565b6000808291508390505b6001851115620005df57808604811115620005b757620005b6620007fc565b5b6001851615620005c75780820291505b8081029050620005d78562000889565b945062000597565b94509492505050565b6000620005f58262000786565b9150620006028362000786565b9250620006317fffffffffffffffffffffffffffffffffffffffffffffffffffffffffffffffff848462000639565b905092915050565b6000826200064b57600190506200071e565b816200065b57600090506200071e565b81600181146200067457600281146200067f57620006b5565b60019150506200071e565b60ff841115620006945762000693620007fc565b5b8360020a915084821115620006ae57620006ad620007fc565b5b506200071e565b5060208310610133831016604e8410600b8410161715620006ef5782820a905083811115620006e957620006e8620007fc565b5b6200071e565b620006fe84848460016200058d565b92509050818404811115620007185762000717620007fc565b5b81810290505b9392505050565b6000620007328262000786565b91506200073f8362000786565b9250817fffffffffffffffffffffffffffffffffffffffffffffffffffffffffffffffff04831182151516156200077b576200077a620007fc565b5b828202905092915050565b6000819050919050565b60005b83811015620007b057808201518184015260208101905062000793565b83811115620007c0576000848401525b50505050565b60006002820490506001821680620007df57607f821691505b60208210811415620007f657620007f56200082b565b5b50919050565b7f4e487b7100000000000000000000000000000000000000000000000000000000600052601160045260246000fd5b7f4e487b7100000000000000000000000000000000000000000000000000000000600052602260045260246000fd5b7f4e487b7100000000000000000000000000000000000000000000000000000000600052604160045260246000fd5b60008160011c9050919050565b611a5280620008a66000396000f3fe6080604052600436106100dd5760003560e01c806370a082311161007f578063a9059cbb11610059578063a9059cbb146102d6578063b46be15e14610313578063dd62ed3e1461031d578063e17f8c131461035a576100dd565b806370a082311461023157806395d89b411461026e578063a457c2d714610299576100dd565b806323b872dd116100bb57806323b872dd14610175578063313ce567146101b257806339509351146101dd57806349c15bd91461021a576100dd565b806306fdde03146100e2578063095ea7b31461010d57806318160ddd1461014a575b600080fd5b3480156100ee57600080fd5b506100f7610371565b60405161010491906114cf565b60405180910390f35b34801561011957600080fd5b50610134600480360381019061012f919061107c565b610403565b60405161014191906114b4565b60405180910390f35b34801561015657600080fd5b5061015f610421565b60405161016c9190611611565b60405180910390f35b34801561018157600080fd5b5061019c6004803603810190610197919061102d565b61042b565b6040516101a991906114b4565b60405180910390f35b3480156101be57600080fd5b506101c7610523565b6040516101d4919061162c565b60405180910390f35b3480156101e957600080fd5b5061020460048036038101906101ff919061107c565b61053a565b60405161021191906114b4565b60405180910390f35b34801561022657600080fd5b5061022f6105e6565b005b34801561023d57600080fd5b5061025860048036038101906102539190610fc8565b6105f1565b6040516102659190611611565b60405180910390f35b34801561027a57600080fd5b50610283610639565b60405161029091906114cf565b60405180910390f35b3480156102a557600080fd5b506102c060048036038101906102bb919061107c565b6106cb565b6040516102cd91906114b4565b60405180910390f35b3480156102e257600080fd5b506102fd60048036038101906102f8919061107c565b6107b6565b60405161030a91906114b4565b60405180910390f35b61031b6107d4565b005b34801561032957600080fd5b50610344600480360381019061033f9190610ff1565b6107d6565b6040516103519190611611565b60405180910390f35b34801561036657600080fd5b5061036f61085d565b005b60606003805461038090611940565b80601f01602080910402602001604051908101604052809291908181526020018280546103ac90611940565b80156103f95780601f106103ce576101008083540402835291602001916103f9565b820191906000526020600020905b8154815290600101906020018083116103dc57829003601f168201915b5050505050905090565b6000610417610410610917565b848461091f565b6001905092915050565b6000600254905090565b6000610438848484610aea565b6000600160008673ffffffffffffffffffffffffffffffffffffffff1673ffffffffffffffffffffffffffffffffffffffff1681526020019081526020016000206000610483610917565b73ffffffffffffffffffffffffffffffffffffffff1673ffffffffffffffffffffffffffffffffffffffff16815260200190815260200160002054905082811015610503576040517f08c379a00000000000000000000000000000000000000000000000000000000081526004016104fa90611571565b60405180910390fd5b6105178561050f610917565b85840361091f565b60019150509392505050565b6000600560009054906101000a900460ff16905090565b60006105dc610547610917565b848460016000610555610917565b73ffffffffffffffffffffffffffffffffffffffff1673ffffffffffffffffffffffffffffffffffffffff16815260200190815260200160002060008873ffffffffffffffffffffffffffffffffffffffff1673ffffffffffffffffffffffffffffffffffffffff168152602001908152602001600020546105d79190611663565b61091f565b6001905092915050565b6105ef33610d6b565b565b60008060008373ffffffffffffffffffffffffffffffffffffffff1673ffffffffffffffffffffffffffffffffffffffff168152602001908152602001600020549050919050565b60606004805461064890611940565b80601f016020809104026020016040519081016040528092919081815260200182805461067490611940565b80156106c15780601f10610696576101008083540402835291602001916106c1565b820191906000526020600020905b8154815290600101906020018083116106a457829003601f168201915b5050505050905090565b600080600160006106da610917565b73ffffffffffffffffffffffffffffffffffffffff1673ffffffffffffffffffffffffffffffffffffffff16815260200190815260200160002060008573ffffffffffffffffffffffffffffffffffffffff1673ffffffffffffffffffffffffffffffffffffffff16815260200190815260200160002054905082811015610797576040517f08c379a000000000000000000000000000000000000000000000000000000000815260040161078e906115f1565b60405180910390fd5b6107ab6107a2610917565b8585840361091f565b600191505092915050565b60006107ca6107c3610917565b8484610aea565b6001905092915050565b565b6000600160008473ffffffffffffffffffffffffffffffffffffffff1673ffffffffffffffffffffffffffffffffffffffff16815260200190815260200160002060008373ffffffffffffffffffffffffffffffffffffffff1673ffffffffffffffffffffffffffffffffffffffff16815260200190815260200160002054905092915050565b610865610523565b60ff16600a610874919061170c565b600a610880919061182a565b610889336105f1565b101561089457600080fd5b6108c0336108a0610523565b60ff16600a6108af919061170c565b600a6108bb919061182a565b610dbd565b60003390508073ffffffffffffffffffffffffffffffffffffffff166108fc670de0b6b3a76400009081150290604051600060405180830381858888f19350505050158015610913573d6000803e3d6000fd5b5050565b600033905090565b600073ffffffffffffffffffffffffffffffffffffffff168373ffffffffffffffffffffffffffffffffffffffff16141561098f576040517f08c379a0000000000000000000000000000000000000000000000000000000008152600401610986906115d1565b60405180910390fd5b600073ffffffffffffffffffffffffffffffffffffffff168273ffffffffffffffffffffffffffffffffffffffff1614156109ff576040517f08c379a00000000000000000000000000000000000000000000000000000000081526004016109f690611531565b60405180910390fd5b80600160008573ffffffffffffffffffffffffffffffffffffffff1673ffffffffffffffffffffffffffffffffffffffff16815260200190815260200160002060008473ffffffffffffffffffffffffffffffffffffffff1673ffffffffffffffffffffffffffffffffffffffff168152602001908152602001600020819055508173ffffffffffffffffffffffffffffffffffffffff168373ffffffffffffffffffffffffffffffffffffffff167f8c5be1e5ebec7d5bd14f71427d1e84f3dd0314c0f7b2291e5b200ac8c7c3b92583604051610add9190611611565b60405180910390a3505050565b600073ffffffffffffffffffffffffffffffffffffffff168373ffffffffffffffffffffffffffffffffffffffff161415610b5a576040517f08c379a0000000000000000000000000000000000000000000000000000000008152600401610b51906115b1565b60405180910390fd5b600073ffffffffffffffffffffffffffffffffffffffff168273ffffffffffffffffffffffffffffffffffffffff161415610bca576040517f08c379a0000000000000000000000000000000000000000000000000000000008152600401610bc1906114f1565b60405180910390fd5b610bd5838383610f94565b60008060008573ffffffffffffffffffffffffffffffffffffffff1673ffffffffffffffffffffffffffffffffffffffff16815260200190815260200160002054905081811015610c5b576040517f08c379a0000000000000000000000000000000000000000000000000000000008152600401610c5290611551565b60405180910390fd5b8181036000808673ffffffffffffffffffffffffffffffffffffffff1673ffffffffffffffffffffffffffffffffffffffff16815260200190815260200160002081905550816000808573ffffffffffffffffffffffffffffffffffffffff1673ffffffffffffffffffffffffffffffffffffffff1681526020019081526020016000206000828254610cee9190611663565b925050819055508273ffffffffffffffffffffffffffffffffffffffff168473ffffffffffffffffffffffffffffffffffffffff167fddf252ad1be2c89b69c2b068fc378daa952ba7f163c4a11628f55a4df523b3ef84604051610d529190611611565b60405180910390a3610d65848484610f99565b50505050565b610dba600560019054906101000a900473ffffffffffffffffffffffffffffffffffffffff1682610d9a610523565b60ff16600a610da9919061170c565b600a610db5919061182a565b610aea565b50565b600073ffffffffffffffffffffffffffffffffffffffff168273ffffffffffffffffffffffffffffffffffffffff161415610e2d576040517f08c379a0000000000000000000000000000000000000000000000000000000008152600401610e2490611591565b60405180910390fd5b610e3982600083610f94565b60008060008473ffffffffffffffffffffffffffffffffffffffff1673ffffffffffffffffffffffffffffffffffffffff16815260200190815260200160002054905081811015610ebf576040517f08c379a0000000000000000000000000000000000000000000000000000000008152600401610eb690611511565b60405180910390fd5b8181036000808573ffffffffffffffffffffffffffffffffffffffff1673ffffffffffffffffffffffffffffffffffffffff168152602001908152602001600020819055508160026000828254610f169190611884565b92505081905550600073ffffffffffffffffffffffffffffffffffffffff168373ffffffffffffffffffffffffffffffffffffffff167fddf252ad1be2c89b69c2b068fc378daa952ba7f163c4a11628f55a4df523b3ef84604051610f7b9190611611565b60405180910390a3610f8f83600084610f99565b505050565b505050565b505050565b600081359050610fad816119ee565b92915050565b600081359050610fc281611a05565b92915050565b600060208284031215610fda57600080fd5b6000610fe884828501610f9e565b91505092915050565b6000806040838503121561100457600080fd5b600061101285828601610f9e565b925050602061102385828601610f9e565b9150509250929050565b60008060006060848603121561104257600080fd5b600061105086828701610f9e565b935050602061106186828701610f9e565b925050604061107286828701610fb3565b9150509250925092565b6000806040838503121561108f57600080fd5b600061109d85828601610f9e565b92505060206110ae85828601610fb3565b9150509250929050565b6110c1816118ca565b82525050565b60006110d282611647565b6110dc8185611652565b93506110ec81856020860161190d565b6110f5816119d0565b840191505092915050565b600061110d602383611652565b91507f45524332303a207472616e7366657220746f20746865207a65726f206164647260008301527f65737300000000000000000000000000000000000000000000000000000000006020830152604082019050919050565b6000611173602283611652565b91507f45524332303a206275726e20616d6f756e7420657863656564732062616c616e60008301527f63650000000000000000000000000000000000000000000000000000000000006020830152604082019050919050565b60006111d9602283611652565b91507f45524332303a20617070726f766520746f20746865207a65726f20616464726560008301527f73730000000000000000000000000000000000000000000000000000000000006020830152604082019050919050565b600061123f602683611652565b91507f45524332303a207472616e7366657220616d6f756e742065786365656473206260008301527f616c616e636500000000000000000000000000000000000000000000000000006020830152604082019050919050565b60006112a5602883611652565b91507f45524332303a207472616e7366657220616d6f756e742065786365656473206160008301527f6c6c6f77616e63650000000000000000000000000000000000000000000000006020830152604082019050919050565b600061130b602183611652565b91507f45524332303a206275726e2066726f6d20746865207a65726f2061646472657360008301527f73000000000000000000000000000000000000000000000000000000000000006020830152604082019050919050565b6000611371602583611652565b91507f45524332303a207472616e736665722066726f6d20746865207a65726f20616460008301527f64726573730000000000000000000000000000000000000000000000000000006020830152604082019050919050565b60006113d7602483611652565b91507f45524332303a20617070726f76652066726f6d20746865207a65726f2061646460008301527f72657373000000000000000000000000000000000000000000000000000000006020830152604082019050919050565b600061143d602583611652565b91507f45524332303a2064656372656173656420616c6c6f77616e63652062656c6f7760008301527f207a65726f0000000000000000000000000000000000000000000000000000006020830152604082019050919050565b61149f816118f6565b82525050565b6114ae81611900565b82525050565b60006020820190506114c960008301846110b8565b92915050565b600060208201905081810360008301526114e981846110c7565b905092915050565b6000602082019050818103600083015261150a81611100565b9050919050565b6000602082019050818103600083015261152a81611166565b9050919050565b6000602082019050818103600083015261154a816111cc565b9050919050565b6000602082019050818103600083015261156a81611232565b9050919050565b6000602082019050818103600083015261158a81611298565b9050919050565b600060208201905081810360008301526115aa816112fe565b9050919050565b600060208201905081810360008301526115ca81611364565b9050919050565b600060208201905081810360008301526115ea816113ca565b9050919050565b6000602082019050818103600083015261160a81611430565b9050919050565b60006020820190506116266000830184611496565b92915050565b600060208201905061164160008301846114a5565b92915050565b600081519050919050565b600082825260208201905092915050565b600061166e826118f6565b9150611679836118f6565b9250827fffffffffffffffffffffffffffffffffffffffffffffffffffffffffffffffff038211156116ae576116ad611972565b5b828201905092915050565b6000808291508390505b6001851115611703578086048111156116df576116de611972565b5b60018516156116ee5780820291505b80810290506116fc856119e1565b94506116c3565b94509492505050565b6000611717826118f6565b9150611722836118f6565b925061174f7fffffffffffffffffffffffffffffffffffffffffffffffffffffffffffffffff8484611757565b905092915050565b6000826117675760019050611823565b816117755760009050611823565b816001811461178b5760028114611795576117c4565b6001915050611823565b60ff8411156117a7576117a6611972565b5b8360020a9150848211156117be576117bd611972565b5b50611823565b5060208310610133831016604e8410600b84101617156117f95782820a9050838111156117f4576117f3611972565b5b611823565b61180684848460016116b9565b9250905081840481111561181d5761181c611972565b5b81810290505b9392505050565b6000611835826118f6565b9150611840836118f6565b9250817fffffffffffffffffffffffffffffffffffffffffffffffffffffffffffffffff048311821515161561187957611878611972565b5b828202905092915050565b600061188f826118f6565b915061189a836118f6565b9250828210156118ad576118ac611972565b5b828203905092915050565b60006118c3826118d6565b9050919050565b60008115159050919050565b600073ffffffffffffffffffffffffffffffffffffffff82169050919050565b6000819050919050565b600060ff82169050919050565b60005b8381101561192b578082015181840152602081019050611910565b8381111561193a576000848401525b50505050565b6000600282049050600182168061195857607f821691505b6020821081141561196c5761196b6119a1565b5b50919050565b7f4e487b7100000000000000000000000000000000000000000000000000000000600052601160045260246000fd5b7f4e487b7100000000000000000000000000000000000000000000000000000000600052602260045260246000fd5b6000601f19601f8301169050919050565b60008160011c9050919050565b6119f7816118b8565b8114611a0257600080fd5b50565b611a0e816118f6565b8114611a1957600080fd5b5056fea2646970667358221220c0f7991afd49ec88f0576cc9aa84ef04900b08c2d526096b1de5cbd81960ba4764736f6c63430008000033",
  "immutableReferences": {},
  "source": "// SPDX-License-Identifier: MIT\r\npragma solidity >=0.4.22 <0.9.0;\r\nimport \"@openzeppelin/contracts/token/ERC20/ERC20.sol\";\r\n\r\ncontract MyToken is  ERC20{\r\n    address minter;\r\n    constructor(string memory _name, string memory _symbol) ERC20(_name, _symbol){\r\n        minter=msg.sender;\r\n      _mint(msg.sender, 1000*(10** uint256(decimals())));\r\n        \r\n    }\r\n    \r\n \r\n    \r\n  function Purchase() public{\r\n      \r\n      _giveLoyalityPoints(msg.sender);\r\n  }\r\n  \r\n function _giveLoyalityPoints(address _owner) private{\r\n     _transfer(minter,_owner, 10*(10** uint256(decimals())));\r\n     \r\n }\r\n function redeemether() public {\r\n     require(balanceOf(msg.sender)>=(10*(10** uint256(decimals()))));\r\n     _burn( msg.sender,10*(10** uint256(decimals())));\r\n     address payable redeemer = payable(msg.sender);\r\n     redeemer.transfer(1 ether);\r\n }\r\n   function depositether() external payable{\r\n        \r\n        \r\n    }\r\n\r\n}",
  "sourcePath": "C:/Users/Acer/Desktop/Building-Applications-In-Blockchain-Guide/Program3 - ERC20 tokens/contracts/ERC20Token.sol",
  "compiler": {
    "name": "solc",
    "version": "0.8.0+commit.c7dfd78e.Emscripten.clang"
  },
  "schemaVersion": "3.4.1",
  "updatedAt": "2021-07-29T06:19:41.093Z",
  "networkType": "ethereum",
  "devdoc": {
    "kind": "dev",
    "methods": {
      "allowance(address,address)": {
        "details": "See {IERC20-allowance}."
      },
      "approve(address,uint256)": {
        "details": "See {IERC20-approve}. Requirements: - `spender` cannot be the zero address."
      },
      "balanceOf(address)": {
        "details": "See {IERC20-balanceOf}."
      },
      "decimals()": {
        "details": "Returns the number of decimals used to get its user representation. For example, if `decimals` equals `2`, a balance of `505` tokens should be displayed to a user as `5,05` (`505 / 10 ** 2`). Tokens usually opt for a value of 18, imitating the relationship between Ether and Wei. This is the value {ERC20} uses, unless this function is overridden; NOTE: This information is only used for _display_ purposes: it in no way affects any of the arithmetic of the contract, including {IERC20-balanceOf} and {IERC20-transfer}."
      },
      "decreaseAllowance(address,uint256)": {
        "details": "Atomically decreases the allowance granted to `spender` by the caller. This is an alternative to {approve} that can be used as a mitigation for problems described in {IERC20-approve}. Emits an {Approval} event indicating the updated allowance. Requirements: - `spender` cannot be the zero address. - `spender` must have allowance for the caller of at least `subtractedValue`."
      },
      "increaseAllowance(address,uint256)": {
        "details": "Atomically increases the allowance granted to `spender` by the caller. This is an alternative to {approve} that can be used as a mitigation for problems described in {IERC20-approve}. Emits an {Approval} event indicating the updated allowance. Requirements: - `spender` cannot be the zero address."
      },
      "name()": {
        "details": "Returns the name of the token."
      },
      "symbol()": {
        "details": "Returns the symbol of the token, usually a shorter version of the name."
      },
      "totalSupply()": {
        "details": "See {IERC20-totalSupply}."
      },
      "transfer(address,uint256)": {
        "details": "See {IERC20-transfer}. Requirements: - `recipient` cannot be the zero address. - the caller must have a balance of at least `amount`."
      },
      "transferFrom(address,address,uint256)": {
        "details": "See {IERC20-transferFrom}. Emits an {Approval} event indicating the updated allowance. This is not required by the EIP. See the note at the beginning of {ERC20}. Requirements: - `sender` and `recipient` cannot be the zero address. - `sender` must have a balance of at least `amount`. - the caller must have allowance for ``sender``'s tokens of at least `amount`."
      }
    },
    "version": 1
  },
  "userdoc": {
    "kind": "user",
    "methods": {},
    "version": 1
  }
}