{
  "contractName": "Certificate",
  "abi": [
    {
      "inputs": [
        {
          "internalType": "string",
          "name": "_name",
          "type": "string"
        },
        {
          "internalType": "string",
          "name": "_symbol",
          "type": "string"
        }
      ],
      "stateMutability": "nonpayable",
      "type": "constructor"
    },
    {
      "anonymous": false,
      "inputs": [
        {
          "indexed": true,
          "internalType": "address",
          "name": "owner",
          "type": "address"
        },
        {
          "indexed": true,
          "internalType": "address",
          "name": "approved",
          "type": "address"
        },
        {
          "indexed": true,
          "internalType": "uint256",
          "name": "tokenId",
          "type": "uint256"
        }
      ],
      "name": "Approval",
      "type": "event"
    },
    {
      "anonymous": false,
      "inputs": [
        {
          "indexed": true,
          "internalType": "address",
          "name": "owner",
          "type": "address"
        },
        {
          "indexed": true,
          "internalType": "address",
          "name": "operator",
          "type": "address"
        },
        {
          "indexed": false,
          "internalType": "bool",
          "name": "approved",
          "type": "bool"
        }
      ],
      "name": "ApprovalForAll",
      "type": "event"
    },
    {
      "anonymous": false,
      "inputs": [
        {
          "indexed": true,
          "internalType": "address",
          "name": "from",
          "type": "address"
        },
        {
          "indexed": true,
          "internalType": "address",
          "name": "to",
          "type": "address"
        },
        {
          "indexed": true,
          "internalType": "uint256",
          "name": "tokenId",
          "type": "uint256"
        }
      ],
      "name": "Transfer",
      "type": "event"
    },
    {
      "inputs": [
        {
          "internalType": "address",
          "name": "to",
          "type": "address"
        },
        {
          "internalType": "uint256",
          "name": "tokenId",
          "type": "uint256"
        }
      ],
      "name": "approve",
      "outputs": [],
      "stateMutability": "nonpayable",
      "type": "function"
    },
    {
      "inputs": [
        {
          "internalType": "address",
          "name": "owner",
          "type": "address"
        }
      ],
      "name": "balanceOf",
      "outputs": [
        {
          "internalType": "uint256",
          "name": "",
          "type": "uint256"
        }
      ],
      "stateMutability": "view",
      "type": "function",
      "constant": true
    },
    {
      "inputs": [],
      "name": "deleteStudent",
      "outputs": [],
      "stateMutability": "nonpayable",
      "type": "function"
    },
    {
      "inputs": [],
      "name": "depositether",
      "outputs": [],
      "stateMutability": "payable",
      "type": "function",
      "payable": true
    },
    {
      "inputs": [],
      "name": "etherbalance",
      "outputs": [
        {
          "internalType": "uint256",
          "name": "",
          "type": "uint256"
        }
      ],
      "stateMutability": "view",
      "type": "function",
      "constant": true
    },
    {
      "inputs": [
        {
          "internalType": "uint256",
          "name": "tokenId",
          "type": "uint256"
        }
      ],
      "name": "getApproved",
      "outputs": [
        {
          "internalType": "address",
          "name": "",
          "type": "address"
        }
      ],
      "stateMutability": "view",
      "type": "function",
      "constant": true
    },
    {
      "inputs": [],
      "name": "getstudents",
      "outputs": [
        {
          "internalType": "uint256",
          "name": "",
          "type": "uint256"
        },
        {
          "internalType": "string",
          "name": "",
          "type": "string"
        },
        {
          "internalType": "uint256",
          "name": "",
          "type": "uint256"
        },
        {
          "internalType": "uint256",
          "name": "",
          "type": "uint256"
        },
        {
          "internalType": "bool",
          "name": "",
          "type": "bool"
        }
      ],
      "stateMutability": "view",
      "type": "function",
      "constant": true
    },
    {
      "inputs": [
        {
          "internalType": "address",
          "name": "owner",
          "type": "address"
        },
        {
          "internalType": "address",
          "name": "operator",
          "type": "address"
        }
      ],
      "name": "isApprovedForAll",
      "outputs": [
        {
          "internalType": "bool",
          "name": "",
          "type": "bool"
        }
      ],
      "stateMutability": "view",
      "type": "function",
      "constant": true
    },
    {
      "inputs": [],
      "name": "name",
      "outputs": [
        {
          "internalType": "string",
          "name": "",
          "type": "string"
        }
      ],
      "stateMutability": "view",
      "type": "function",
      "constant": true
    },
    {
      "inputs": [
        {
          "internalType": "uint256",
          "name": "tokenId",
          "type": "uint256"
        }
      ],
      "name": "ownerOf",
      "outputs": [
        {
          "internalType": "address",
          "name": "",
          "type": "address"
        }
      ],
      "stateMutability": "view",
      "type": "function",
      "constant": true
    },
    {
      "inputs": [],
      "name": "redeemEther",
      "outputs": [],
      "stateMutability": "nonpayable",
      "type": "function"
    },
    {
      "inputs": [
        {
          "internalType": "string",
          "name": "_name",
          "type": "string"
        },
        {
          "internalType": "uint256",
          "name": "_rollno",
          "type": "uint256"
        },
        {
          "internalType": "uint256",
          "name": "_percentage",
          "type": "uint256"
        }
      ],
      "name": "registerStudent",
      "outputs": [],
      "stateMutability": "nonpayable",
      "type": "function"
    },
    {
      "inputs": [
        {
          "internalType": "address",
          "name": "from",
          "type": "address"
        },
        {
          "internalType": "address",
          "name": "to",
          "type": "address"
        },
        {
          "internalType": "uint256",
          "name": "tokenId",
          "type": "uint256"
        }
      ],
      "name": "safeTransferFrom",
      "outputs": [],
      "stateMutability": "nonpayable",
      "type": "function"
    },
    {
      "inputs": [
        {
          "internalType": "address",
          "name": "from",
          "type": "address"
        },
        {
          "internalType": "address",
          "name": "to",
          "type": "address"
        },
        {
          "internalType": "uint256",
          "name": "tokenId",
          "type": "uint256"
        },
        {
          "internalType": "bytes",
          "name": "_data",
          "type": "bytes"
        }
      ],
      "name": "safeTransferFrom",
      "outputs": [],
      "stateMutability": "nonpayable",
      "type": "function"
    },
    {
      "inputs": [
        {
          "internalType": "address",
          "name": "operator",
          "type": "address"
        },
        {
          "internalType": "bool",
          "name": "approved",
          "type": "bool"
        }
      ],
      "name": "setApprovalForAll",
      "outputs": [],
      "stateMutability": "nonpayable",
      "type": "function"
    },
    {
      "inputs": [
        {
          "internalType": "bytes4",
          "name": "interfaceId",
          "type": "bytes4"
        }
      ],
      "name": "supportsInterface",
      "outputs": [
        {
          "internalType": "bool",
          "name": "",
          "type": "bool"
        }
      ],
      "stateMutability": "view",
      "type": "function",
      "constant": true
    },
    {
      "inputs": [],
      "name": "symbol",
      "outputs": [
        {
          "internalType": "string",
          "name": "",
          "type": "string"
        }
      ],
      "stateMutability": "view",
      "type": "function",
      "constant": true
    },
    {
      "inputs": [
        {
          "internalType": "uint256",
          "name": "tokenId",
          "type": "uint256"
        }
      ],
      "name": "tokenURI",
      "outputs": [
        {
          "internalType": "string",
          "name": "",
          "type": "string"
        }
      ],
      "stateMutability": "view",
      "type": "function",
      "constant": true
    },
    {
      "inputs": [
        {
          "internalType": "address",
          "name": "from",
          "type": "address"
        },
        {
          "internalType": "address",
          "name": "to",
          "type": "address"
        },
        {
          "internalType": "uint256",
          "name": "tokenId",
          "type": "uint256"
        }
      ],
      "name": "transferFrom",
      "outputs": [],
      "stateMutability": "nonpayable",
      "type": "function"
    },
    {
      "inputs": [
        {
          "internalType": "uint256",
          "name": "_id",
          "type": "uint256"
        },
        {
          "internalType": "string",
          "name": "_name",
          "type": "string"
        },
        {
          "internalType": "uint256",
          "name": "_rollno",
          "type": "uint256"
        },
        {
          "internalType": "uint256",
          "name": "_percentage",
          "type": "uint256"
        }
      ],
      "name": "updateStudent",
      "outputs": [],
      "stateMutability": "nonpayable",
      "type": "function"
    },
    {
      "inputs": [],
      "name": "createCertificate",
      "outputs": [],
      "stateMutability": "nonpayable",
      "type": "function"
    }
  ],
  "bytecode": "0x608060405260006006553480156200001657600080fd5b50604051620039953803806200399583398181016040528101906200003c91906200019c565b81818160009080519060200190620000569291906200007a565b5080600190805190602001906200006f9291906200007a565b50505050506200037f565b8280546200008890620002a4565b90600052602060002090601f016020900481019282620000ac5760008555620000f8565b82601f10620000c757805160ff1916838001178555620000f8565b82800160010185558215620000f8579182015b82811115620000f7578251825591602001919060010190620000da565b5b5090506200010791906200010b565b5090565b5b80821115620001265760008160009055506001016200010c565b5090565b6000620001416200013b8462000238565b6200020f565b9050828152602081018484840111156200015a57600080fd5b620001678482856200026e565b509392505050565b600082601f8301126200018157600080fd5b8151620001938482602086016200012a565b91505092915050565b60008060408385031215620001b057600080fd5b600083015167ffffffffffffffff811115620001cb57600080fd5b620001d9858286016200016f565b925050602083015167ffffffffffffffff811115620001f757600080fd5b62000205858286016200016f565b9150509250929050565b60006200021b6200022e565b9050620002298282620002da565b919050565b6000604051905090565b600067ffffffffffffffff8211156200025657620002556200033f565b5b62000261826200036e565b9050602081019050919050565b60005b838110156200028e57808201518184015260208101905062000271565b838111156200029e576000848401525b50505050565b60006002820490506001821680620002bd57607f821691505b60208210811415620002d457620002d362000310565b5b50919050565b620002e5826200036e565b810181811067ffffffffffffffff821117156200030757620003066200033f565b5b80604052505050565b7f4e487b7100000000000000000000000000000000000000000000000000000000600052602260045260246000fd5b7f4e487b7100000000000000000000000000000000000000000000000000000000600052604160045260246000fd5b6000601f19601f8301169050919050565b613606806200038f6000396000f3fe60806040526004361061012a5760003560e01c806370a08231116100ab578063b88d4fde1161006f578063b88d4fde146103bf578063c87b56dd146103e8578063e621b5df14610425578063e714b1311461043c578063e985e9c514610467578063ec02547f146104a45761012a565b806370a082311461030d57806395d89b411461034a578063a22cb46514610375578063b2db85f71461039e578063b46be15e146103b55761012a565b806324ff8a1b116100f257806324ff8a1b1461022657806330bf31db1461025557806342842e0e1461027e578063563d9460146102a75780636352211e146102d05761012a565b806301ffc9a71461012f57806306fdde031461016c578063081812fc14610197578063095ea7b3146101d457806323b872dd146101fd575b600080fd5b34801561013b57600080fd5b5061015660048036038101906101519190612557565b6104bb565b6040516101639190612a62565b60405180910390f35b34801561017857600080fd5b5061018161059d565b60405161018e9190612a7d565b60405180910390f35b3480156101a357600080fd5b506101be60048036038101906101b99190612610565b61062f565b6040516101cb91906129fb565b60405180910390f35b3480156101e057600080fd5b506101fb60048036038101906101f6919061251b565b6106b4565b005b34801561020957600080fd5b50610224600480360381019061021f9190612415565b6107cc565b005b34801561023257600080fd5b5061023b61082c565b60405161024c959493929190612cda565b60405180910390f35b34801561026157600080fd5b5061027c600480360381019061027791906125a9565b610a2d565b005b34801561028a57600080fd5b506102a560048036038101906102a09190612415565b610c31565b005b3480156102b357600080fd5b506102ce60048036038101906102c99190612639565b610c51565b005b3480156102dc57600080fd5b506102f760048036038101906102f29190612610565b610e42565b60405161030491906129fb565b60405180910390f35b34801561031957600080fd5b50610334600480360381019061032f91906123b0565b610ef4565b6040516103419190612cbf565b60405180910390f35b34801561035657600080fd5b5061035f610fac565b60405161036c9190612a7d565b60405180910390f35b34801561038157600080fd5b5061039c600480360381019061039791906124df565b61103e565b005b3480156103aa57600080fd5b506103b36111bf565b005b6103bd6112ee565b005b3480156103cb57600080fd5b506103e660048036038101906103e19190612464565b6112f0565b005b3480156103f457600080fd5b5061040f600480360381019061040a9190612610565b611352565b60405161041c9190612a7d565b60405180910390f35b34801561043157600080fd5b5061043a6113f9565b005b34801561044857600080fd5b50610451611558565b60405161045e9190612cbf565b60405180910390f35b34801561047357600080fd5b5061048e600480360381019061048991906123d9565b611560565b60405161049b9190612a62565b60405180910390f35b3480156104b057600080fd5b506104b96115f4565b005b60007f80ac58cd000000000000000000000000000000000000000000000000000000007bffffffffffffffffffffffffffffffffffffffffffffffffffffffff1916827bffffffffffffffffffffffffffffffffffffffffffffffffffffffff1916148061058657507f5b5e139f000000000000000000000000000000000000000000000000000000007bffffffffffffffffffffffffffffffffffffffffffffffffffffffff1916827bffffffffffffffffffffffffffffffffffffffffffffffffffffffff1916145b80610596575061059582611688565b5b9050919050565b6060600080546105ac90612f6f565b80601f01602080910402602001604051908101604052809291908181526020018280546105d890612f6f565b80156106255780601f106105fa57610100808354040283529160200191610625565b820191906000526020600020905b81548152906001019060200180831161060857829003601f168201915b5050505050905090565b600061063a826116f2565b610679576040517f08c379a000000000000000000000000000000000000000000000000000000000815260040161067090612bff565b60405180910390fd5b6004600083815260200190815260200160002060009054906101000a900473ffffffffffffffffffffffffffffffffffffffff169050919050565b60006106bf82610e42565b90508073ffffffffffffffffffffffffffffffffffffffff168373ffffffffffffffffffffffffffffffffffffffff161415610730576040517f08c379a000000000000000000000000000000000000000000000000000000000815260040161072790612c7f565b60405180910390fd5b8073ffffffffffffffffffffffffffffffffffffffff1661074f61175e565b73ffffffffffffffffffffffffffffffffffffffff16148061077e575061077d8161077861175e565b611560565b5b6107bd576040517f08c379a00000000000000000000000000000000000000000000000000000000081526004016107b490612b7f565b60405180910390fd5b6107c78383611766565b505050565b6107dd6107d761175e565b8261181f565b61081c576040517f08c379a000000000000000000000000000000000000000000000000000000000815260040161081390612c9f565b60405180910390fd5b6108278383836118fd565b505050565b600060606000806000600860003373ffffffffffffffffffffffffffffffffffffffff1673ffffffffffffffffffffffffffffffffffffffff16815260200190815260200160002060000154600860003373ffffffffffffffffffffffffffffffffffffffff1673ffffffffffffffffffffffffffffffffffffffff168152602001908152602001600020600101600860003373ffffffffffffffffffffffffffffffffffffffff1673ffffffffffffffffffffffffffffffffffffffff16815260200190815260200160002060020154600860003373ffffffffffffffffffffffffffffffffffffffff1673ffffffffffffffffffffffffffffffffffffffff16815260200190815260200160002060030154600860003373ffffffffffffffffffffffffffffffffffffffff1673ffffffffffffffffffffffffffffffffffffffff16815260200190815260200160002060040160009054906101000a900460ff1683805461099c90612f6f565b80601f01602080910402602001604051908101604052809291908181526020018280546109c890612f6f565b8015610a155780601f106109ea57610100808354040283529160200191610a15565b820191906000526020600020905b8154815290600101906020018083116109f857829003601f168201915b50505050509350945094509450945094509091929394565b6000600960003373ffffffffffffffffffffffffffffffffffffffff1673ffffffffffffffffffffffffffffffffffffffff1681526020019081526020016000205414610a7957600080fd5b600960003373ffffffffffffffffffffffffffffffffffffffff1673ffffffffffffffffffffffffffffffffffffffff1681526020019081526020016000206000815480929190610ac990612fd2565b91905055506040518060c00160405280600654815260200184815260200183815260200182815260200160001515815260200160001515815250600860003373ffffffffffffffffffffffffffffffffffffffff1673ffffffffffffffffffffffffffffffffffffffff168152602001908152602001600020600082015181600001556020820151816001019080519060200190610b68929190612194565b50604082015181600201556060820151816003015560808201518160040160006101000a81548160ff02191690831515021790555060a08201518160040160016101000a81548160ff0219169083151502179055509050503360076000600654815260200190815260200160002060006101000a81548173ffffffffffffffffffffffffffffffffffffffff021916908373ffffffffffffffffffffffffffffffffffffffff16021790555060066000815480929190610c2790612fd2565b9190505550505050565b610c4c838383604051806020016040528060008152506112f0565b505050565b610c59611b59565b15610e01573373ffffffffffffffffffffffffffffffffffffffff166007600086815260200190815260200160002060009054906101000a900473ffffffffffffffffffffffffffffffffffffffff1673ffffffffffffffffffffffffffffffffffffffff1614610cc957600080fd5b83600860003373ffffffffffffffffffffffffffffffffffffffff1673ffffffffffffffffffffffffffffffffffffffff1681526020019081526020016000206000015414610d1757600080fd5b82600860003373ffffffffffffffffffffffffffffffffffffffff1673ffffffffffffffffffffffffffffffffffffffff1681526020019081526020016000206001019080519060200190610d6d929190612194565b5081600860003373ffffffffffffffffffffffffffffffffffffffff1673ffffffffffffffffffffffffffffffffffffffff1681526020019081526020016000206002018190555080600860003373ffffffffffffffffffffffffffffffffffffffff1673ffffffffffffffffffffffffffffffffffffffff16815260200190815260200160002060030181905550610e3c565b6040517f08c379a0000000000000000000000000000000000000000000000000000000008152600401610e3390612a9f565b60405180910390fd5b50505050565b6000806002600084815260200190815260200160002060009054906101000a900473ffffffffffffffffffffffffffffffffffffffff169050600073ffffffffffffffffffffffffffffffffffffffff168173ffffffffffffffffffffffffffffffffffffffff161415610eeb576040517f08c379a0000000000000000000000000000000000000000000000000000000008152600401610ee290612bbf565b60405180910390fd5b80915050919050565b60008073ffffffffffffffffffffffffffffffffffffffff168273ffffffffffffffffffffffffffffffffffffffff161415610f65576040517f08c379a0000000000000000000000000000000000000000000000000000000008152600401610f5c90612b9f565b60405180910390fd5b600360008373ffffffffffffffffffffffffffffffffffffffff1673ffffffffffffffffffffffffffffffffffffffff168152602001908152602001600020549050919050565b606060018054610fbb90612f6f565b80601f0160208091040260200160405190810160405280929190818152602001828054610fe790612f6f565b80156110345780601f1061100957610100808354040283529160200191611034565b820191906000526020600020905b81548152906001019060200180831161101757829003601f168201915b5050505050905090565b61104661175e565b73ffffffffffffffffffffffffffffffffffffffff168273ffffffffffffffffffffffffffffffffffffffff1614156110b4576040517f08c379a00000000000000000000000000000000000000000000000000000000081526004016110ab90612b1f565b60405180910390fd5b80600560006110c161175e565b73ffffffffffffffffffffffffffffffffffffffff1673ffffffffffffffffffffffffffffffffffffffff16815260200190815260200160002060008473ffffffffffffffffffffffffffffffffffffffff1673ffffffffffffffffffffffffffffffffffffffff16815260200190815260200160002060006101000a81548160ff0219169083151502179055508173ffffffffffffffffffffffffffffffffffffffff1661116e61175e565b73ffffffffffffffffffffffffffffffffffffffff167f17307eab39ab6107e8899845ad3d59bd9653f200f220920489ca2b5937696c31836040516111b39190612a62565b60405180910390a35050565b600115156111cb611b59565b1515146111d757600080fd5b60001515600860003373ffffffffffffffffffffffffffffffffffffffff1673ffffffffffffffffffffffffffffffffffffffff16815260200190815260200160002060040160019054906101000a900460ff1615151461126d576040517f08c379a000000000000000000000000000000000000000000000000000000000815260040161126490612b5f565b60405180910390fd5b61127933600a54611bf7565b6001600860003373ffffffffffffffffffffffffffffffffffffffff1673ffffffffffffffffffffffffffffffffffffffff16815260200190815260200160002060040160016101000a81548160ff021916908315150217905550600a60008154809291906112e790612fd2565b9190505550565b565b6113016112fb61175e565b8361181f565b611340576040517f08c379a000000000000000000000000000000000000000000000000000000000815260040161133790612c9f565b60405180910390fd5b61134c84848484611dc5565b50505050565b606061135d826116f2565b61139c576040517f08c379a000000000000000000000000000000000000000000000000000000000815260040161139390612c3f565b60405180910390fd5b60006113a6611e21565b905060008151116113c657604051806020016040528060008152506113f1565b806113d084611e38565b6040516020016113e19291906129d7565b6040516020818303038152906040525b915050919050565b6000339050611406611b59565b1561151a5760001515600860008373ffffffffffffffffffffffffffffffffffffffff1673ffffffffffffffffffffffffffffffffffffffff16815260200190815260200160002060040160009054906101000a900460ff1615151461146b57600080fd5b8073ffffffffffffffffffffffffffffffffffffffff166108fc670de0b6b3a76400009081150290604051600060405180830381858888f193505050501580156114b9573d6000803e3d6000fd5b506001600860008373ffffffffffffffffffffffffffffffffffffffff1673ffffffffffffffffffffffffffffffffffffffff16815260200190815260200160002060040160006101000a81548160ff021916908315150217905550611555565b6040517f08c379a000000000000000000000000000000000000000000000000000000000815260040161154c90612c5f565b60405180910390fd5b50565b600047905090565b6000600560008473ffffffffffffffffffffffffffffffffffffffff1673ffffffffffffffffffffffffffffffffffffffff16815260200190815260200160002060008373ffffffffffffffffffffffffffffffffffffffff1673ffffffffffffffffffffffffffffffffffffffff16815260200190815260200160002060009054906101000a900460ff16905092915050565b600860003373ffffffffffffffffffffffffffffffffffffffff1673ffffffffffffffffffffffffffffffffffffffff16815260200190815260200160002060008082016000905560018201600061164c919061221a565b600282016000905560038201600090556004820160006101000a81549060ff02191690556004820160016101000a81549060ff02191690555050565b60007f01ffc9a7000000000000000000000000000000000000000000000000000000007bffffffffffffffffffffffffffffffffffffffffffffffffffffffff1916827bffffffffffffffffffffffffffffffffffffffffffffffffffffffff1916149050919050565b60008073ffffffffffffffffffffffffffffffffffffffff166002600084815260200190815260200160002060009054906101000a900473ffffffffffffffffffffffffffffffffffffffff1673ffffffffffffffffffffffffffffffffffffffff1614159050919050565b600033905090565b816004600083815260200190815260200160002060006101000a81548173ffffffffffffffffffffffffffffffffffffffff021916908373ffffffffffffffffffffffffffffffffffffffff160217905550808273ffffffffffffffffffffffffffffffffffffffff166117d983610e42565b73ffffffffffffffffffffffffffffffffffffffff167f8c5be1e5ebec7d5bd14f71427d1e84f3dd0314c0f7b2291e5b200ac8c7c3b92560405160405180910390a45050565b600061182a826116f2565b611869576040517f08c379a000000000000000000000000000000000000000000000000000000000815260040161186090612b3f565b60405180910390fd5b600061187483610e42565b90508073ffffffffffffffffffffffffffffffffffffffff168473ffffffffffffffffffffffffffffffffffffffff1614806118e357508373ffffffffffffffffffffffffffffffffffffffff166118cb8461062f565b73ffffffffffffffffffffffffffffffffffffffff16145b806118f457506118f38185611560565b5b91505092915050565b8273ffffffffffffffffffffffffffffffffffffffff1661191d82610e42565b73ffffffffffffffffffffffffffffffffffffffff1614611973576040517f08c379a000000000000000000000000000000000000000000000000000000000815260040161196a90612c1f565b60405180910390fd5b600073ffffffffffffffffffffffffffffffffffffffff168273ffffffffffffffffffffffffffffffffffffffff1614156119e3576040517f08c379a00000000000000000000000000000000000000000000000000000000081526004016119da90612aff565b60405180910390fd5b6119ee838383611fe5565b6119f9600082611766565b6001600360008573ffffffffffffffffffffffffffffffffffffffff1673ffffffffffffffffffffffffffffffffffffffff1681526020019081526020016000206000828254611a499190612e85565b925050819055506001600360008473ffffffffffffffffffffffffffffffffffffffff1673ffffffffffffffffffffffffffffffffffffffff1681526020019081526020016000206000828254611aa09190612dfe565b92505081905550816002600083815260200190815260200160002060006101000a81548173ffffffffffffffffffffffffffffffffffffffff021916908373ffffffffffffffffffffffffffffffffffffffff160217905550808273ffffffffffffffffffffffffffffffffffffffff168473ffffffffffffffffffffffffffffffffffffffff167fddf252ad1be2c89b69c2b068fc378daa952ba7f163c4a11628f55a4df523b3ef60405160405180910390a4505050565b600080600090505b6006548111611bee573373ffffffffffffffffffffffffffffffffffffffff166007600083815260200190815260200160002060009054906101000a900473ffffffffffffffffffffffffffffffffffffffff1673ffffffffffffffffffffffffffffffffffffffff161415611bdb576001915050611bf4565b8080611be690612fd2565b915050611b61565b50600090505b90565b600073ffffffffffffffffffffffffffffffffffffffff168273ffffffffffffffffffffffffffffffffffffffff161415611c67576040517f08c379a0000000000000000000000000000000000000000000000000000000008152600401611c5e90612bdf565b60405180910390fd5b611c70816116f2565b15611cb0576040517f08c379a0000000000000000000000000000000000000000000000000000000008152600401611ca790612adf565b60405180910390fd5b611cbc60008383611fe5565b6001600360008473ffffffffffffffffffffffffffffffffffffffff1673ffffffffffffffffffffffffffffffffffffffff1681526020019081526020016000206000828254611d0c9190612dfe565b92505081905550816002600083815260200190815260200160002060006101000a81548173ffffffffffffffffffffffffffffffffffffffff021916908373ffffffffffffffffffffffffffffffffffffffff160217905550808273ffffffffffffffffffffffffffffffffffffffff16600073ffffffffffffffffffffffffffffffffffffffff167fddf252ad1be2c89b69c2b068fc378daa952ba7f163c4a11628f55a4df523b3ef60405160405180910390a45050565b611dd08484846118fd565b611ddc84848484611fea565b611e1b576040517f08c379a0000000000000000000000000000000000000000000000000000000008152600401611e1290612abf565b60405180910390fd5b50505050565b606060405180602001604052806000815250905090565b60606000821415611e80576040518060400160405280600181526020017f30000000000000000000000000000000000000000000000000000000000000008152509050611fe0565b600082905060005b60008214611eb2578080611e9b90612fd2565b915050600a82611eab9190612e54565b9150611e88565b60008167ffffffffffffffff811115611ef4577f4e487b7100000000000000000000000000000000000000000000000000000000600052604160045260246000fd5b6040519080825280601f01601f191660200182016040528015611f265781602001600182028036833780820191505090505b5090505b60008514611fd957600182611f3f9190612e85565b9150600a85611f4e919061301b565b6030611f5a9190612dfe565b60f81b818381518110611f96577f4e487b7100000000000000000000000000000000000000000000000000000000600052603260045260246000fd5b60200101907effffffffffffffffffffffffffffffffffffffffffffffffffffffffffffff1916908160001a905350600a85611fd29190612e54565b9450611f2a565b8093505050505b919050565b505050565b600061200b8473ffffffffffffffffffffffffffffffffffffffff16612181565b15612174578373ffffffffffffffffffffffffffffffffffffffff1663150b7a0261203461175e565b8786866040518563ffffffff1660e01b81526004016120569493929190612a16565b602060405180830381600087803b15801561207057600080fd5b505af19250505080156120a157506040513d601f19601f8201168201806040525081019061209e9190612580565b60015b612124573d80600081146120d1576040519150601f19603f3d011682016040523d82523d6000602084013e6120d6565b606091505b5060008151141561211c576040517f08c379a000000000000000000000000000000000000000000000000000000000815260040161211390612abf565b60405180910390fd5b805181602001fd5b63150b7a0260e01b7bffffffffffffffffffffffffffffffffffffffffffffffffffffffff1916817bffffffffffffffffffffffffffffffffffffffffffffffffffffffff191614915050612179565b600190505b949350505050565b600080823b905060008111915050919050565b8280546121a090612f6f565b90600052602060002090601f0160209004810192826121c25760008555612209565b82601f106121db57805160ff1916838001178555612209565b82800160010185558215612209579182015b828111156122085782518255916020019190600101906121ed565b5b509050612216919061225a565b5090565b50805461222690612f6f565b6000825580601f106122385750612257565b601f016020900490600052602060002090810190612256919061225a565b5b50565b5b8082111561227357600081600090555060010161225b565b5090565b600061228a61228584612d59565b612d34565b9050828152602081018484840111156122a257600080fd5b6122ad848285612f2d565b509392505050565b60006122c86122c384612d8a565b612d34565b9050828152602081018484840111156122e057600080fd5b6122eb848285612f2d565b509392505050565b60008135905061230281613574565b92915050565b6000813590506123178161358b565b92915050565b60008135905061232c816135a2565b92915050565b600081519050612341816135a2565b92915050565b600082601f83011261235857600080fd5b8135612368848260208601612277565b91505092915050565b600082601f83011261238257600080fd5b81356123928482602086016122b5565b91505092915050565b6000813590506123aa816135b9565b92915050565b6000602082840312156123c257600080fd5b60006123d0848285016122f3565b91505092915050565b600080604083850312156123ec57600080fd5b60006123fa858286016122f3565b925050602061240b858286016122f3565b9150509250929050565b60008060006060848603121561242a57600080fd5b6000612438868287016122f3565b9350506020612449868287016122f3565b925050604061245a8682870161239b565b9150509250925092565b6000806000806080858703121561247a57600080fd5b6000612488878288016122f3565b9450506020612499878288016122f3565b93505060406124aa8782880161239b565b925050606085013567ffffffffffffffff8111156124c757600080fd5b6124d387828801612347565b91505092959194509250565b600080604083850312156124f257600080fd5b6000612500858286016122f3565b925050602061251185828601612308565b9150509250929050565b6000806040838503121561252e57600080fd5b600061253c858286016122f3565b925050602061254d8582860161239b565b9150509250929050565b60006020828403121561256957600080fd5b60006125778482850161231d565b91505092915050565b60006020828403121561259257600080fd5b60006125a084828501612332565b91505092915050565b6000806000606084860312156125be57600080fd5b600084013567ffffffffffffffff8111156125d857600080fd5b6125e486828701612371565b93505060206125f58682870161239b565b92505060406126068682870161239b565b9150509250925092565b60006020828403121561262257600080fd5b60006126308482850161239b565b91505092915050565b6000806000806080858703121561264f57600080fd5b600061265d8782880161239b565b945050602085013567ffffffffffffffff81111561267a57600080fd5b61268687828801612371565b93505060406126978782880161239b565b92505060606126a88782880161239b565b91505092959194509250565b6126bd81612eb9565b82525050565b6126cc81612ecb565b82525050565b60006126dd82612dbb565b6126e78185612dd1565b93506126f7818560208601612f3c565b61270081613108565b840191505092915050565b600061271682612dc6565b6127208185612de2565b9350612730818560208601612f3c565b61273981613108565b840191505092915050565b600061274f82612dc6565b6127598185612df3565b9350612769818560208601612f3c565b80840191505092915050565b6000612782601583612de2565b915061278d82613119565b602082019050919050565b60006127a5603283612de2565b91506127b082613142565b604082019050919050565b60006127c8601c83612de2565b91506127d382613191565b602082019050919050565b60006127eb602483612de2565b91506127f6826131ba565b604082019050919050565b600061280e601983612de2565b915061281982613209565b602082019050919050565b6000612831602c83612de2565b915061283c82613232565b604082019050919050565b6000612854601c83612de2565b915061285f82613281565b602082019050919050565b6000612877603883612de2565b9150612882826132aa565b604082019050919050565b600061289a602a83612de2565b91506128a5826132f9565b604082019050919050565b60006128bd602983612de2565b91506128c882613348565b604082019050919050565b60006128e0602083612de2565b91506128eb82613397565b602082019050919050565b6000612903602c83612de2565b915061290e826133c0565b604082019050919050565b6000612926602983612de2565b91506129318261340f565b604082019050919050565b6000612949602f83612de2565b91506129548261345e565b604082019050919050565b600061296c601683612de2565b9150612977826134ad565b602082019050919050565b600061298f602183612de2565b915061299a826134d6565b604082019050919050565b60006129b2603183612de2565b91506129bd82613525565b604082019050919050565b6129d181612f23565b82525050565b60006129e38285612744565b91506129ef8284612744565b91508190509392505050565b6000602082019050612a1060008301846126b4565b92915050565b6000608082019050612a2b60008301876126b4565b612a3860208301866126b4565b612a4560408301856129c8565b8181036060830152612a5781846126d2565b905095945050505050565b6000602082019050612a7760008301846126c3565b92915050565b60006020820190508181036000830152612a97818461270b565b905092915050565b60006020820190508181036000830152612ab881612775565b9050919050565b60006020820190508181036000830152612ad881612798565b9050919050565b60006020820190508181036000830152612af8816127bb565b9050919050565b60006020820190508181036000830152612b18816127de565b9050919050565b60006020820190508181036000830152612b3881612801565b9050919050565b60006020820190508181036000830152612b5881612824565b9050919050565b60006020820190508181036000830152612b7881612847565b9050919050565b60006020820190508181036000830152612b988161286a565b9050919050565b60006020820190508181036000830152612bb88161288d565b9050919050565b60006020820190508181036000830152612bd8816128b0565b9050919050565b60006020820190508181036000830152612bf8816128d3565b9050919050565b60006020820190508181036000830152612c18816128f6565b9050919050565b60006020820190508181036000830152612c3881612919565b9050919050565b60006020820190508181036000830152612c588161293c565b9050919050565b60006020820190508181036000830152612c788161295f565b9050919050565b60006020820190508181036000830152612c9881612982565b9050919050565b60006020820190508181036000830152612cb8816129a5565b9050919050565b6000602082019050612cd460008301846129c8565b92915050565b600060a082019050612cef60008301886129c8565b8181036020830152612d01818761270b565b9050612d1060408301866129c8565b612d1d60608301856129c8565b612d2a60808301846126c3565b9695505050505050565b6000612d3e612d4f565b9050612d4a8282612fa1565b919050565b6000604051905090565b600067ffffffffffffffff821115612d7457612d736130d9565b5b612d7d82613108565b9050602081019050919050565b600067ffffffffffffffff821115612da557612da46130d9565b5b612dae82613108565b9050602081019050919050565b600081519050919050565b600081519050919050565b600082825260208201905092915050565b600082825260208201905092915050565b600081905092915050565b6000612e0982612f23565b9150612e1483612f23565b9250827fffffffffffffffffffffffffffffffffffffffffffffffffffffffffffffffff03821115612e4957612e4861304c565b5b828201905092915050565b6000612e5f82612f23565b9150612e6a83612f23565b925082612e7a57612e7961307b565b5b828204905092915050565b6000612e9082612f23565b9150612e9b83612f23565b925082821015612eae57612ead61304c565b5b828203905092915050565b6000612ec482612f03565b9050919050565b60008115159050919050565b60007fffffffff0000000000000000000000000000000000000000000000000000000082169050919050565b600073ffffffffffffffffffffffffffffffffffffffff82169050919050565b6000819050919050565b82818337600083830152505050565b60005b83811015612f5a578082015181840152602081019050612f3f565b83811115612f69576000848401525b50505050565b60006002820490506001821680612f8757607f821691505b60208210811415612f9b57612f9a6130aa565b5b50919050565b612faa82613108565b810181811067ffffffffffffffff82111715612fc957612fc86130d9565b5b80604052505050565b6000612fdd82612f23565b91507fffffffffffffffffffffffffffffffffffffffffffffffffffffffffffffffff8214156130105761300f61304c565b5b600182019050919050565b600061302682612f23565b915061303183612f23565b9250826130415761304061307b565b5b828206905092915050565b7f4e487b7100000000000000000000000000000000000000000000000000000000600052601160045260246000fd5b7f4e487b7100000000000000000000000000000000000000000000000000000000600052601260045260246000fd5b7f4e487b7100000000000000000000000000000000000000000000000000000000600052602260045260246000fd5b7f4e487b7100000000000000000000000000000000000000000000000000000000600052604160045260246000fd5b6000601f19601f8301169050919050565b7f596f75206172656e6f7420726567697374657265640000000000000000000000600082015250565b7f4552433732313a207472616e7366657220746f206e6f6e20455243373231526560008201527f63656976657220696d706c656d656e7465720000000000000000000000000000602082015250565b7f4552433732313a20746f6b656e20616c7265616479206d696e74656400000000600082015250565b7f4552433732313a207472616e7366657220746f20746865207a65726f2061646460008201527f7265737300000000000000000000000000000000000000000000000000000000602082015250565b7f4552433732313a20617070726f766520746f2063616c6c657200000000000000600082015250565b7f4552433732313a206f70657261746f7220717565727920666f72206e6f6e657860008201527f697374656e7420746f6b656e0000000000000000000000000000000000000000602082015250565b7f436572746966696361746520616c72656164792070726f766964656400000000600082015250565b7f4552433732313a20617070726f76652063616c6c6572206973206e6f74206f7760008201527f6e6572206e6f7220617070726f76656420666f7220616c6c0000000000000000602082015250565b7f4552433732313a2062616c616e636520717565727920666f7220746865207a6560008201527f726f206164647265737300000000000000000000000000000000000000000000602082015250565b7f4552433732313a206f776e657220717565727920666f72206e6f6e657869737460008201527f656e7420746f6b656e0000000000000000000000000000000000000000000000602082015250565b7f4552433732313a206d696e7420746f20746865207a65726f2061646472657373600082015250565b7f4552433732313a20617070726f76656420717565727920666f72206e6f6e657860008201527f697374656e7420746f6b656e0000000000000000000000000000000000000000602082015250565b7f4552433732313a207472616e73666572206f6620746f6b656e2074686174206960008201527f73206e6f74206f776e0000000000000000000000000000000000000000000000602082015250565b7f4552433732314d657461646174613a2055524920717565727920666f72206e6f60008201527f6e6578697374656e7420746f6b656e0000000000000000000000000000000000602082015250565b7f596f7520617265206e6f74207265676973746572656400000000000000000000600082015250565b7f4552433732313a20617070726f76616c20746f2063757272656e74206f776e6560008201527f7200000000000000000000000000000000000000000000000000000000000000602082015250565b7f4552433732313a207472616e736665722063616c6c6572206973206e6f74206f60008201527f776e6572206e6f7220617070726f766564000000000000000000000000000000602082015250565b61357d81612eb9565b811461358857600080fd5b50565b61359481612ecb565b811461359f57600080fd5b50565b6135ab81612ed7565b81146135b657600080fd5b50565b6135c281612f23565b81146135cd57600080fd5b5056fea264697066735822122087b58581727ee527f030d5430b66e8f435a58f35194e417e99f1fe29b8bb256764736f6c63430008010033",
  "immutableReferences": {},
  "source": "pragma solidity >=0.4.22 <0.9.0;\r\nimport \"@openzeppelin/contracts/token/ERC721/ERC721.sol\";\r\nimport \"contracts/StudentRecords.sol\";\r\n\r\ncontract Certificate is ERC721,StudentRecords {\r\n\r\nconstructor(string memory _name, string memory _symbol) ERC721(_name, _symbol){\r\n    \r\n}\r\nuint tokenId;\r\n\r\nfunction createCertificate() public {\r\nrequire(_checkforrecord()==true);\r\nrequire(students[msg.sender].certificatetoken == false,\"Certificate already provided\");\r\n_mint(msg.sender, tokenId);\r\nstudents[msg.sender].certificatetoken = true;\r\ntokenId++;\r\n}\r\n\r\n}",
  "sourcePath": "C:/Users/Acer/Desktop/Building-Applications-In-Blockchain-Guide/Program4-NFTwithIPFS/contracts/Certificate.sol",
  "compiler": {
    "name": "solc",
    "version": "0.8.1+commit.df193b15.Emscripten.clang"
  },
  "schemaVersion": "3.4.1",
  "updatedAt": "2021-07-29T14:37:30.482Z",
  "networkType": "ethereum",
  "devdoc": {
    "kind": "dev",
    "methods": {
      "approve(address,uint256)": {
        "details": "See {IERC721-approve}."
      },
      "balanceOf(address)": {
        "details": "See {IERC721-balanceOf}."
      },
      "getApproved(uint256)": {
        "details": "See {IERC721-getApproved}."
      },
      "isApprovedForAll(address,address)": {
        "details": "See {IERC721-isApprovedForAll}."
      },
      "name()": {
        "details": "See {IERC721Metadata-name}."
      },
      "ownerOf(uint256)": {
        "details": "See {IERC721-ownerOf}."
      },
      "safeTransferFrom(address,address,uint256)": {
        "details": "See {IERC721-safeTransferFrom}."
      },
      "safeTransferFrom(address,address,uint256,bytes)": {
        "details": "See {IERC721-safeTransferFrom}."
      },
      "setApprovalForAll(address,bool)": {
        "details": "See {IERC721-setApprovalForAll}."
      },
      "supportsInterface(bytes4)": {
        "details": "See {IERC165-supportsInterface}."
      },
      "symbol()": {
        "details": "See {IERC721Metadata-symbol}."
      },
      "tokenURI(uint256)": {
        "details": "See {IERC721Metadata-tokenURI}."
      },
      "transferFrom(address,address,uint256)": {
        "details": "See {IERC721-transferFrom}."
      }
    },
    "version": 1
  },
  "userdoc": {
    "kind": "user",
    "methods": {},
    "version": 1
  }
}