{
  "contractName": "StudentRecords",
  "abi": [
    {
      "inputs": [],
      "name": "redeemEther",
      "outputs": [],
      "stateMutability": "nonpayable",
      "type": "function"
    },
    {
      "inputs": [],
      "name": "etherbalance",
      "outputs": [
        {
          "internalType": "uint256",
          "name": "",
          "type": "uint256"
        }
      ],
      "stateMutability": "view",
      "type": "function"
    },
    {
      "inputs": [],
      "name": "depositether",
      "outputs": [],
      "stateMutability": "payable",
      "type": "function"
    },
    {
      "inputs": [
        {
          "internalType": "string",
          "name": "_name",
          "type": "string"
        },
        {
          "internalType": "uint256",
          "name": "_rollno",
          "type": "uint256"
        },
        {
          "internalType": "uint256",
          "name": "_percentage",
          "type": "uint256"
        }
      ],
      "name": "registerStudent",
      "outputs": [],
      "stateMutability": "nonpayable",
      "type": "function"
    },
    {
      "inputs": [],
      "name": "getstudents",
      "outputs": [
        {
          "internalType": "uint256",
          "name": "",
          "type": "uint256"
        },
        {
          "internalType": "string",
          "name": "",
          "type": "string"
        },
        {
          "internalType": "uint256",
          "name": "",
          "type": "uint256"
        },
        {
          "internalType": "uint256",
          "name": "",
          "type": "uint256"
        },
        {
          "internalType": "bool",
          "name": "",
          "type": "bool"
        }
      ],
      "stateMutability": "view",
      "type": "function"
    },
    {
      "inputs": [
        {
          "internalType": "uint256",
          "name": "_id",
          "type": "uint256"
        },
        {
          "internalType": "string",
          "name": "_name",
          "type": "string"
        },
        {
          "internalType": "uint256",
          "name": "_rollno",
          "type": "uint256"
        },
        {
          "internalType": "uint256",
          "name": "_percentage",
          "type": "uint256"
        }
      ],
      "name": "updateStudent",
      "outputs": [],
      "stateMutability": "nonpayable",
      "type": "function"
    },
    {
      "inputs": [],
      "name": "deleteStudent",
      "outputs": [],
      "stateMutability": "nonpayable",
      "type": "function"
    }
  ],
  "bytecode": "0x60806040526000805534801561001457600080fd5b5061102f806100246000396000f3fe6080604052600436106100705760003560e01c8063b46be15e1161004e578063b46be15e146100f6578063e621b5df14610100578063e714b13114610117578063ec02547f1461014257610070565b806324ff8a1b1461007557806330bf31db146100a4578063563d9460146100cd575b600080fd5b34801561008157600080fd5b5061008a610159565b60405161009b959493929190610d22565b60405180910390f35b3480156100b057600080fd5b506100cb60048036038101906100c69190610b48565b61035a565b005b3480156100d957600080fd5b506100f460048036038101906100ef9190610baf565b61055c565b005b6100fe61074d565b005b34801561010c57600080fd5b5061011561074f565b005b34801561012357600080fd5b5061012c6108ae565b6040516101399190610d07565b60405180910390f35b34801561014e57600080fd5b506101576108b6565b005b600060606000806000600260003373ffffffffffffffffffffffffffffffffffffffff1673ffffffffffffffffffffffffffffffffffffffff16815260200190815260200160002060000154600260003373ffffffffffffffffffffffffffffffffffffffff1673ffffffffffffffffffffffffffffffffffffffff168152602001908152602001600020600101600260003373ffffffffffffffffffffffffffffffffffffffff1673ffffffffffffffffffffffffffffffffffffffff16815260200190815260200160002060020154600260003373ffffffffffffffffffffffffffffffffffffffff1673ffffffffffffffffffffffffffffffffffffffff16815260200190815260200160002060030154600260003373ffffffffffffffffffffffffffffffffffffffff1673ffffffffffffffffffffffffffffffffffffffff16815260200190815260200160002060040160009054906101000a900460ff168380546102c990610e46565b80601f01602080910402602001604051908101604052809291908181526020018280546102f590610e46565b80156103425780601f1061031757610100808354040283529160200191610342565b820191906000526020600020905b81548152906001019060200180831161032557829003601f168201915b50505050509350945094509450945094509091929394565b6000600360003373ffffffffffffffffffffffffffffffffffffffff1673ffffffffffffffffffffffffffffffffffffffff16815260200190815260200160002054146103a657600080fd5b600360003373ffffffffffffffffffffffffffffffffffffffff1673ffffffffffffffffffffffffffffffffffffffff16815260200190815260200160002060008154809291906103f690610ea9565b91905055506040518060c00160405280600054815260200184815260200183815260200182815260200160001515815260200160001515815250600260003373ffffffffffffffffffffffffffffffffffffffff1673ffffffffffffffffffffffffffffffffffffffff1681526020019081526020016000206000820151816000015560208201518160010190805190602001906104959291906109e8565b50604082015181600201556060820151816003015560808201518160040160006101000a81548160ff02191690831515021790555060a08201518160040160016101000a81548160ff02191690831515021790555090505033600160008054815260200190815260200160002060006101000a81548173ffffffffffffffffffffffffffffffffffffffff021916908373ffffffffffffffffffffffffffffffffffffffff16021790555060008081548092919061055290610ea9565b9190505550505050565b61056461094a565b1561070c573373ffffffffffffffffffffffffffffffffffffffff166001600086815260200190815260200160002060009054906101000a900473ffffffffffffffffffffffffffffffffffffffff1673ffffffffffffffffffffffffffffffffffffffff16146105d457600080fd5b83600260003373ffffffffffffffffffffffffffffffffffffffff1673ffffffffffffffffffffffffffffffffffffffff168152602001908152602001600020600001541461062257600080fd5b82600260003373ffffffffffffffffffffffffffffffffffffffff1673ffffffffffffffffffffffffffffffffffffffff16815260200190815260200160002060010190805190602001906106789291906109e8565b5081600260003373ffffffffffffffffffffffffffffffffffffffff1673ffffffffffffffffffffffffffffffffffffffff1681526020019081526020016000206002018190555080600260003373ffffffffffffffffffffffffffffffffffffffff1673ffffffffffffffffffffffffffffffffffffffff16815260200190815260200160002060030181905550610747565b6040517f08c379a000000000000000000000000000000000000000000000000000000000815260040161073e90610cc7565b60405180910390fd5b50505050565b565b600033905061075c61094a565b156108705760001515600260008373ffffffffffffffffffffffffffffffffffffffff1673ffffffffffffffffffffffffffffffffffffffff16815260200190815260200160002060040160009054906101000a900460ff161515146107c157600080fd5b8073ffffffffffffffffffffffffffffffffffffffff166108fc670de0b6b3a76400009081150290604051600060405180830381858888f1935050505015801561080f573d6000803e3d6000fd5b506001600260008373ffffffffffffffffffffffffffffffffffffffff1673ffffffffffffffffffffffffffffffffffffffff16815260200190815260200160002060040160006101000a81548160ff0219169083151502179055506108ab565b6040517f08c379a00000000000000000000000000000000000000000000000000000000081526004016108a290610ce7565b60405180910390fd5b50565b600047905090565b600260003373ffffffffffffffffffffffffffffffffffffffff1673ffffffffffffffffffffffffffffffffffffffff16815260200190815260200160002060008082016000905560018201600061090e9190610a6e565b600282016000905560038201600090556004820160006101000a81549060ff02191690556004820160016101000a81549060ff02191690555050565b600080600090505b60005481116109df573373ffffffffffffffffffffffffffffffffffffffff166001600083815260200190815260200160002060009054906101000a900473ffffffffffffffffffffffffffffffffffffffff1673ffffffffffffffffffffffffffffffffffffffff1614156109cc5760019150506109e5565b80806109d790610ea9565b915050610952565b50600090505b90565b8280546109f490610e46565b90600052602060002090601f016020900481019282610a165760008555610a5d565b82601f10610a2f57805160ff1916838001178555610a5d565b82800160010185558215610a5d579182015b82811115610a5c578251825591602001919060010190610a41565b5b509050610a6a9190610aae565b5090565b508054610a7a90610e46565b6000825580601f10610a8c5750610aab565b601f016020900490600052602060002090810190610aaa9190610aae565b5b50565b5b80821115610ac7576000816000905550600101610aaf565b5090565b6000610ade610ad984610da1565b610d7c565b905082815260208101848484011115610af657600080fd5b610b01848285610e04565b509392505050565b600082601f830112610b1a57600080fd5b8135610b2a848260208601610acb565b91505092915050565b600081359050610b4281610fe2565b92915050565b600080600060608486031215610b5d57600080fd5b600084013567ffffffffffffffff811115610b7757600080fd5b610b8386828701610b09565b9350506020610b9486828701610b33565b9250506040610ba586828701610b33565b9150509250925092565b60008060008060808587031215610bc557600080fd5b6000610bd387828801610b33565b945050602085013567ffffffffffffffff811115610bf057600080fd5b610bfc87828801610b09565b9350506040610c0d87828801610b33565b9250506060610c1e87828801610b33565b91505092959194509250565b610c3381610dee565b82525050565b6000610c4482610dd2565b610c4e8185610ddd565b9350610c5e818560208601610e13565b610c6781610f7f565b840191505092915050565b6000610c7f601583610ddd565b9150610c8a82610f90565b602082019050919050565b6000610ca2601683610ddd565b9150610cad82610fb9565b602082019050919050565b610cc181610dfa565b82525050565b60006020820190508181036000830152610ce081610c72565b9050919050565b60006020820190508181036000830152610d0081610c95565b9050919050565b6000602082019050610d1c6000830184610cb8565b92915050565b600060a082019050610d376000830188610cb8565b8181036020830152610d498187610c39565b9050610d586040830186610cb8565b610d656060830185610cb8565b610d726080830184610c2a565b9695505050505050565b6000610d86610d97565b9050610d928282610e78565b919050565b6000604051905090565b600067ffffffffffffffff821115610dbc57610dbb610f50565b5b610dc582610f7f565b9050602081019050919050565b600081519050919050565b600082825260208201905092915050565b60008115159050919050565b6000819050919050565b82818337600083830152505050565b60005b83811015610e31578082015181840152602081019050610e16565b83811115610e40576000848401525b50505050565b60006002820490506001821680610e5e57607f821691505b60208210811415610e7257610e71610f21565b5b50919050565b610e8182610f7f565b810181811067ffffffffffffffff82111715610ea057610e9f610f50565b5b80604052505050565b6000610eb482610dfa565b91507fffffffffffffffffffffffffffffffffffffffffffffffffffffffffffffffff821415610ee757610ee6610ef2565b5b600182019050919050565b7f4e487b7100000000000000000000000000000000000000000000000000000000600052601160045260246000fd5b7f4e487b7100000000000000000000000000000000000000000000000000000000600052602260045260246000fd5b7f4e487b7100000000000000000000000000000000000000000000000000000000600052604160045260246000fd5b6000601f19601f8301169050919050565b7f596f75206172656e6f7420726567697374657265640000000000000000000000600082015250565b7f596f7520617265206e6f74207265676973746572656400000000000000000000600082015250565b610feb81610dfa565b8114610ff657600080fd5b5056fea2646970667358221220f909a03c0bb7159a4bfe6b879708457036d6240e4b94d172b803b681bfbfa8f664736f6c63430008010033",
  "immutableReferences": {},
  "source": "pragma solidity >=0.4.22 <0.9.0;\r\n\r\ncontract StudentRecords  {\r\n    uint StudentId =0;\r\n    \r\n    \r\n    struct Student {\r\n        uint id;\r\n        string name;\r\n        uint rollNo;\r\n        uint percentage;\r\n        bool redeemed;\r\n        bool certificatetoken;\r\n        \r\n        \r\n    }\r\n    // event AddStudent(string name, uint rollNo, uint percentage);\r\n    // event EditStudent(uint id, string  name, uint rollno, uint percentage);\r\n\r\n    mapping(uint => address) studentToAddress;\r\n    mapping(address => Student) students;\r\n    mapping(address => uint) registration;\r\n   \r\n \r\n\r\n    // Payable constructor can receive Ether\r\n    \r\n    function redeemEther() public {\r\n        address payable studentaddress =payable(msg.sender);\r\n        if(_checkforrecord())\r\n        {\r\n        require(students[studentaddress].redeemed == false);\r\n        studentaddress.transfer(1 ether);\r\n        students[studentaddress].redeemed = true;\r\n        }\r\n        \r\n        else{\r\n            revert('You are not registered');\r\n            \r\n        }\r\n        \r\n    }\r\n     function etherbalance() external view returns(uint) {\r\n        \r\n        return address(this).balance;\r\n    }\r\n    \r\n    function depositether() external payable{\r\n        \r\n        \r\n    }\r\n\r\n    \r\n    function registerStudent(string memory _name, uint _rollno, uint _percentage) public {\r\n        require(registration[msg.sender]==0);\r\n        registration[msg.sender]++;\r\n        students[msg.sender] = Student(StudentId, _name, _rollno, _percentage,false,false);\r\n        studentToAddress[StudentId]= msg.sender;\r\n        // emit AddStudent(_name, _rollno, _percentage);\r\n        StudentId++;\r\n    \r\n        \r\n    }\r\n    \r\n    function getstudents() view public returns(uint,string memory,uint,uint,bool ){\r\n    \r\n            \r\n           return(students[msg.sender].id,students[msg.sender].name, students[msg.sender].rollNo, students[msg.sender].percentage, students[msg.sender].redeemed);\r\n        \r\n        \r\n    }\r\n    \r\n    function updateStudent(uint _id, string memory _name, uint _rollno, uint _percentage) public{\r\n        \r\n        if(_checkforrecord())\r\n        {\r\n             require(studentToAddress[_id] == msg.sender);\r\n        require(students[msg.sender].id==_id);\r\n        \r\n        students[msg.sender].name = _name;\r\n        students[msg.sender].rollNo= _rollno;\r\n        students[msg.sender].percentage=_percentage;\r\n        // emit EditStudent(_id, _name, _rollno, _percentage);\r\n        } else{\r\n            revert('You arenot registered');\r\n        }\r\n        \r\n       \r\n    }\r\n    \r\n    function deleteStudent() public{\r\n    \r\n    \r\n    delete students[msg.sender];\r\n    \r\n   \r\n    \r\n}\r\nfunction _checkforrecord() internal view returns(bool) {\r\n    for(uint i=0;i<=StudentId;i++)\r\n    {\r\n        if(studentToAddress[i]==msg.sender){\r\n            return true;\r\n        }\r\n    }\r\n    return false;\r\n}\r\n}",
  "sourcePath": "C:/Users/Acer/Desktop/Building-Applications-In-Blockchain-Guide/Program4-NFTwithIPFS/contracts/StudentRecords.sol",
  "compiler": {
    "name": "solc",
    "version": "0.8.1+commit.df193b15.Emscripten.clang"
  },
  "schemaVersion": "3.4.1",
  "updatedAt": "2021-07-29T14:29:47.193Z",
  "devdoc": {
    "kind": "dev",
    "methods": {},
    "version": 1
  },
  "userdoc": {
    "kind": "user",
    "methods": {},
    "version": 1
  }
}